:020000040800F2
:200000000040002069650008251400082F140008000000000000000000000000000000001E
:200020000000000000000000000000003514000800000000000000003F14000849140008AF
:20004000C5640008CB640008D1640008D7640008DD640008E364000853140008E96400085C
:20006000EF64000865140008F5640008FB640008016500087D140008076500080D650008E7
:2000800013650008196500081F650008256500082B650008951400083165000837650008B1
:2000A0003D6500084365000849650008AD1400084F650008556500085B6500086165000853
:2000C00010B5064C2378002B07D1054B002B02D0044800E000BF0123237010BD3804002053
:2000E000000000004C690008044B10B5002B03D00349044800E000BF10BDC0460000000027
:200100003C0400204C690008002243088B4274D303098B425FD3030A8B4244D3030B8B426A
:2001200028D3030C8B420DD3FF22090212BA030C8B4202D31212090265D0030B8B4219D334
:2001400000E0090AC30B8B4201D3CB03C01A5241830B8B4201D38B03C01A5241430B8B42BD
:2001600001D34B03C01A5241030B8B4201D30B03C01A5241C30A8B4201D3CB02C01A52411E
:20018000830A8B4201D38B02C01A5241430A8B4201D34B02C01A5241030A8B4201D30B02D4
:2001A000C01A5241CDD2C3098B4201D3CB01C01A524183098B4201D38B01C01A524143091B
:2001C0008B4201D34B01C01A524103098B4201D30B01C01A5241C3088B4201D3CB00C01A8E
:2001E000524183088B4201D38B00C01A524143088B4201D34B00C01A5241411A00D2014630
:20020000524110467047FFE701B5002000F006F802BDC0460029F7D076E770477047C0460E
:2002200090B589B000AF786005F09CFF1F243B19FF221A700023FB6010217B1800221A6009
:200240007B187A685A607B680C4AD31ADA0A7B189A600C23FA187B181100180006F042F8AB
:20026000031E02D13B1900221A7005F0A1FF1F23FB181B781800BD4609B090BDFFFF0108E5
:20028000B0B586B000AFF860B9607A601723FB1800221A7005F066FF00233B613DE0284B27
:2002A0000221180005F058FCFB68264A934207D91722BB18BA18127801210A431A7029E0C8
:2002C0003B699B00BA68D3181B681C0000231D00F96822002B00022005F0AEFE031E06D08B
:2002E0001722BB18BA18127802210A431A703B699B00BA68D3181A68FB681B689A4206D036
:200300001722BB18BA18127804210A431A70FB680433FB603B6901333B613A697B689A42AE
:2003200004D21723FB181B78002BB8D005F040FF1723FB181B781800BD4606B0B0BDC046FC
:2003400000040048EEFF010880B582B000AF094B1B687B6005F0F0F9074B1B683B603B68A2
:2003600083F30888C0467B689847C046BD4602B080BDC046048000080080000880B500AFB9
:2003800080231B0128480122190005F0C8FB192005F00EFA80231B0123480022190005F0AA
:2003A000BEFB192005F004FA80231B011E480122190005F0B4FB192005F0FAF980231B0173
:2003C00019480022190005F0AAFB192005F0F0F980231B0114480122190005F0A0FB1920B0
:2003E00005F0E6F980231B010F480022190005F096FB192005F0DCF980231B010A4801221B
:20040000190005F08CFB192005F0D2F980231B0105480022190005F082FB192005F0C8F9A6
:20042000C046BD4680BDC0460004004880B582B000AF78607B68DB437B607B68DBB20122C7
:200440001340DAB280239B012B48190005F067FB7B68DBB202221340DAB28023DB0126483B
:20046000190005F05CFB7B68DBB204221340DAB280231B022048190005F051FB7B68DBB2B0
:2004800008221340DAB280239B001C48190005F046FB7B68DBB210221340DAB280235B00E3
:2004A0001648190005F03BFB7B68DBB220221340DBB211481A00802105F031FB7B68DBB263
:2004C00040221340DBB20C481A00402105F027FB7B68DBB27F229343DBB207481A002021D6
:2004E00005F01DFB044B0221180005F035FBC046BD4602B080BDC0460004004800080048A6
:2005000080B500AF074B0221180005F025FB80235B01044A1900100005F01EFBC046BD46C8
:2005200080BDC0460004004880B500AF0C4801230122002102F022F99023DB050022102199
:20054000180005F0ECFA012005F032F99023DB0501221021180005F0E2FAC046BD4680BD51
:200560003809002080B582B000AF05F0D1F800F099F800F025F900F093FB00F05DFA00F002
:20058000ADFB00F02FFC00F05DFE00F047FB00F01DFD00F087FE00F0C5FC384B0022042121
:2005A000180005F0BCFAFFF7BFFF354B00220221180005F0B4FA012005F0FAF8304B01229E
:2005C0000221180005F0ABFA2E4B1800FFF72EFFFFF7D4FEFFF794FF2B4B180000F0D2FDF4
:2005E000FFF78EFF294B180000F0CCFDFFF788FF274B180000F0C6FDFFF782FF254B18007A
:2006000000F0C0FDFFF790FFFFF77AFF1B4B0221180005F067FA031E1DD01F4B180000F0C2
:20062000B1FDFB1D01221A700FE0FB1D1B78DB431800FFF7FBFE0A2005F0BAF8FFF774FF4E
:20064000FA1DFB1D1B78DB181370FB1D1B787E2BEBD9FFF779FE80231B0209480122190090
:2006600005F05DFA0D4B180000F08CFD00F0B8FF0B4B180000F086FDEDE7C0460008004893
:200680000004004800FFFFFFA0670008C8670008DC67000800680008286800084C680008BC
:2006A0009C68000890B599B000AF2C243B19180034231A00002105F09DFF1C23FB181800A8
:2006C00010231A00002105F095FF3B0018001C231A00002105F08EFF05F0A0FC2B4B1A6A49
:2006E0002A4B18210A431A6221007B1834221A607B1801229A607B1801221A627B18012267
:200700005A617B1810229A617B1800225A627B18180004F08DF9031E01D000F04DF81C2164
:200720007B1807221A607B1803225A607B1800229A607B180022DA607B180121180004F0B2
:20074000D5FC031E01D000F037F83B00104A1A603B0001229A603B000022DA603B008022DC
:2007600052005A603B00180004F0D4FE031E01D000F022F88023DB0400221900002004F087
:20078000BFFDC046BD4619B090BDC046001002400300010080B582B000AF78607B681B68CE
:2007A000044A934201D104F0EDFFC046BD4602B080BDC046002C014080B500AFFEE7000030
:2007C00090B58BB000AF14243B19180014231A00002105F00FFF904B5A698F4B80210903AC
:2007E0000A435A618C4B5A6980231B0313403B613B69894B5A69884B8021C9030A435A6124
:20080000854B5A698023DB031340FB60FB68824B5A69814B802189020A435A617E4B5A6997
:2008200080239B021340BB60BB687B4B5A697A4B8021C9020A435A61774B5A698023DB0220
:2008400013407B607B68744B5A69734B802149030A435A61704B5A6980235B0313403B60E5
:200860003B68FD239B006D480022190005F057F96B499023DB050022180005F050F9694974
:20088000694B0022180005F04AF9684B00220421180005F044F93B19654A1A603B190022FB
:2008A0005A603B1901229A603B195C4A1900100004F09CFF21007B18FD2292001A600C0070
:2008C0003B1901225A603B1900229A603B190022DA603B19514A1900100004F087FF3B19E1
:2008E00008221A603B1900225A603B1902229A603B194A4A1900100004F078FF3B190222BE
:200900001A603B1900225A603B1900229A603A199023DB051100180004F068FF3B19404A75
:200920001A603B1901225A603B1900229A603B190022DA603A199023DB051100180004F0E9
:2009400055FF3B19374A1A603B1901225A603B1900229A603B190022DA603B19324A1900BA
:20096000100004F043FF3B1904221A603B19314A5A603B1902229A603B192B4A1900100050
:2009800004F034FF21007B18802252001A600C003B1902225A603B1900229A603B190022EA
:2009A000DA603B1900221A613A199023DB051100180004F01BFF3B19802212021A603B1917
:2009C00000225A603B1901229A603A199023DB051100180004F00AFF21007B1804221A606A
:2009E0007B1801225A607B1800229A607B180022DA607B180D4A1900100004F0F7FE0022CB
:200A00000021062005F0E4FA062005F0F6FAC046BD460BB090BDC0460010024000080048F8
:200A200010180000FBFF000000040048000C0048021C00000000211080B584B000AF3B1D35
:200A400018000C231A00002105F0D4FD384B394A1A60374B00225A60354B08229A60344B4D
:200A60000022DA60324B01221A61314B08225A612F4B00229A612E4B0022DA612C4B012297
:200A80001A622B4B00225A62294BC222FF329A62274B0022DA62264B01221A63244B00228F
:200AA0005A63234B180000F0D1FF031E01D0FFF783FE3B1D0A221A603B1D802252015A60C5
:200AC0003B1D07229A603A1D194B1100180001F0FBF8031E01D0FFF76FFE3B1D10221A607A
:200AE0003A1D134B1100180001F0EEF8031E01D0FFF762FE3B1D11221A603A1D0C4B110035
:200B0000180001F0E1F8031E01D0FFF755FE3B1D12221A603A1D064B1100180001F0D4F824
:200B2000031E01D0FFF748FEC046BD4604B080BDA80800200024014090B58BB000AF786051
:200B400014243B19180014231A00002105F052FD7B681B682C4A934252D12C4B9A692B4B77
:200B6000802189000A439A61284B9A6980239B0013403B613B69254B5A69244B802109036D
:200B80000A435A61214B5A6980231B031340FB60FB683B1901221A603B1903225A603B19D4
:200BA00000229A603B191A4A1900100004F01EFE184B194A1A60174B00225A60154B002228
:200BC0009A60144B8022DA60124B802292001A61104B802212015A610E4B20229A610D4B1B
:200BE0000022DA610B4B180004F0EEFF031E01D0FFF7E2FD7B68074ADA63064B7A685A6222
:200C0000C046BD460BB090BD002401400010024000080048640800200800024080B500AF02
:200C20000E4B0F4A1A600D4B00221A710B4B00225A710A4B00225A61084B00229A61074B4C
:200C400001221A62054B180001F04CF9031E01D0FFF7B2FDC046BD4680BDC046F408002058
:200C60000030024080B584B000AF78607B681B68094A93420BD1094B5A69084B40210A4390
:200C80005A61064B5B6940221340FB60FB68C046BD4604B080BDC04600300240001002404D
:200CA00080B582B000AF0C4B5A690B4B01210A435A61094B5B69012213407B607B68002216
:200CC0000021092005F084F9092005F096F9C046BD4602B080BDC0460010024080B586B0F0
:200CE00000AF3B1D180014231A00002105F082FC3B0000221A602D4B2D4A1A602B4B002218
:200D00005A602A4B7F229A60284BFF22DA60274B00221A61254B00225A61244B00229A6153
:200D2000224B180001F0AAF9031E01D0FFF744FD3B1D00221A703B1D00225A703B1D0022AF
:200D40009A703B1D0022DA603B1D00221A61391D164B0122180001F025FA031E01D0FFF7F6
:200D60002BFD3B0001221A703B0001225A703B0001229A703B000022DA7039000B4B01227A
:200D8000180001F0D3FA031E01D0FFF715FD074B00220021180001F013FC031E01D0FFF7EE
:200DA0000BFDC046BD4606B080BDC046180900200028004080B582B000AF78607B681B682C
:200DC000064A934206D1064B1A6A054B802109020A431A62C046BD4602B080BD002800401D
:200DE0000010024080B500AF1B4B1C4A1A601A4B822252005A60184B00229A60164BE02280
:200E0000D200DA60144B00221A61134B00225A61114B802292009A610F4B3822DA610E4BBC
:200E200000221A620C4B00225A620B4B00229A62094B0722DA62084B00221A63064B00224D
:200E40005A63054B180001F0FFFB031E01D0FFF7B3FCC046BD4680BD3809002000300140D3
:200E600090B58BB000AF786014243B19180014231A00002105F0BEFB7B681B68274A9342FB
:200E800048D1274B9A69264B802149010A439A61234B9A6980235B0113403B613B69204BB2
:200EA0005A691F4B802189020A435A611C4B5A6980239B021340FB60FB683B1920221A6046
:200EC0003B1902225A603B1900229A603B190322DA603B1900221A613A199023DB051100D5
:200EE000180004F083FC21007B18C0221A607B1802225A607B1801229A607B180322DA6044
:200F00007B1800221A617A189023DB051100180004F06CFCC046BD460BB090BD0030014075
:200F20000010024080B586B000AF0823FB18180010231A00002105F05DFB3B0018000823B6
:200F40001A00002105F056FB1E4B8022D2051A601C4B30225A601B4B00229A60194B1A4AF7
:200F6000DA60184B00221A61164B00229A61154B180001F09BFE031E01D0FFF71DFC08218D
:200F80007B18802252011A607A180E4B1100180002F072F8031E01D0FFF70EFC3B00002290
:200FA0001A603B0000225A603A00064B1100180002F0B0FC031E01D0FFF7FEFBC046BD4664
:200FC00006B080BD9C09002040420F0080B58EB000AF1C23FB1818001C231A00002105F0CD
:200FE00009FB3B0018001C231A00002105F002FB344B354A1A60334BFA2212015A60314BD3
:2010000000229A602F4B0A22DA602E4B00221A612C4B05225A612B4B80229A61294B1800C6
:2010200001F044FE031E01D0FFF7C6FB254B180001F081FE031E01D0FFF7BEFB1C217B186B
:2010400010221A607B1800225A607B1800229A607B180022DA607B1800221A617B180022F2
:201060005A617B1800229A617918164B0022180001F0ABFF031E01D0FFF79EFB3B00002260
:201080001A603B0000225A603B0000229A603B000022DA603B0000221A613B008022920189
:2010A0005A613B0000229A613A00064B1100180002F074FC031E01D0FFF77EFBC046BD469D
:2010C0000EB080BDDC0900200044014080B584B000AF78607B681A688023DB059A420CD1FA
:2010E000154BDA69144B01210A43DA61124BDB6901221340FB60FB681AE07B681B680F4AB6
:20110000934215D10C4B9A690B4B802189020A439A61094B9A6980239B021340BB60BB68C8
:2011200000220021152004F053FF152004F065FFC046BD4604B080BD001002400044014093
:20114000B0B584B000AF78600A00BB1C1A800F257B19FF221A70FA239C00BB1C1A8879686E
:201160000748230002F094FD031E02D17B1900221A700F23FB181B781800BD4604B0B0BD32
:201180001C0A002090B585B000AF78600F23FB18FF221A700C23FB1800221A8005E00C2108
:2011A0007B181A887B1801321A800C217B181B887A68D3181B78002BF1D1FA239C007B189E
:2011C0001A8879680848230002F0BEFC031E03D10F23FB1800221A700F23FB181B78180097
:2011E000BD4605B090BDC0461C0A002080B584B000AF0200FB1D1A700F23FB18FF221A70F2
:201200000F4B180002F0BAFF0300A02B03D10C4B180002F01FFEFA239B00F91D0848012250
:2012200002F092FC031E03D10F23FB1800221A700F23FB181B781800BD4604B080BDC0465E
:201240001C0A002080B500AF144B154A1A60134BE12252025A60114B00229A600F4B0022C9
:20126000DA600E4B00221A610C4B0C225A610B4B00229A61094B0022DA61084B00221A62E9
:20128000064B00225A62054B180002F005FC031E01D0FFF791FAC046BD4680BD1C0A0020C5
:2012A0000038014080B500AF144B154A1A60134BE12252025A60114B00229A600F4B002236
:2012C000DA600E4B00221A610C4B0C225A610B4B00229A61094B0022DA61084B00221A6289
:2012E000064B00225A62054B180002F0D5FB031E01D0FFF761FAC046BD4680BD8C0A002056
:201300000044004090B58DB000AF78601C243B19180014231A00002105F06CF97B681B6862
:201320003D4A93423CD13D4B9A693C4B8021C9010A439A61394B9A698023DB011340BB610A
:20134000BB69364B5A69354B802189020A435A61324B5A6980239B0213407B617B693B198A
:20136000C022D2001A6021007B1802225A607B1800229A607B180322DA607B1801221A61DB
:201380007A189023DB051100180004F02FFA002203211B2004F01CFE1B2004F02EFE37E0E1
:2013A0007B681B681E4A934232D11C4BDA691B4B802189020A43DA61184BDA6980239B02DD
:2013C00013403B613B69154B5A69144B802189020A435A61114B5A6980239B021340FB60B7
:2013E000FB681C217B180C221A607B1802225A607B1800229A607B180322DA607B1801224A
:201400001A617A189023DB051100180004F0EEF9C046BD460DB090BD00380140001002404A
:201420000044004080B500AFC046BD4680BD80B500AFFEE780B500AFC046BD4680BD80B5D6
:2014400000AFC046BD4680BD80B500AFC046BD4680BD80B500AF042004F090FBC046BD46DD
:2014600080BD000080B500AF034B180004F06EFCC046BD4680BDC0466408002080B500AFCB
:20148000034B180001F08BFCC046BD4680BDC046FC0A002080B500AF034B180001F07FFC46
:2014A000C046BD4680BDC046DC09002080B500AF034B180002F036FDC046BD4680BDC04620
:2014C0001C0A002080B582B000AF0F4B9A690E4B01210A439A610C4B9B69012213407B60E4
:2014E0007B68094BDA69084B802149050A43DA61054BDA6980235B0513403B603B68C0467B
:20150000BD4602B080BDC0460010024080B58AB000AF786000237B6200233B627B680022C6
:2015200019000D2004F054FD0D2004F066FD214B9A69204B802109010A439A611D4B9A6964
:2015400080231B011340BB60BB680C23FA181023FB181100180003F0B3FF03F09BFF030056
:201560007B627B6A14491800FEF7CEFD0300013B3B62124B124A1A60104B124ADA600F4B1A
:201580003A6A5A600D4B00221A610C4B00229A600A4B180001F08AFB031E05D1074B180041
:2015A00001F0B0FB030000E001231800BD460AB080BDC0460010024040420F00FC0A002067
:2015C000002C0140E703000080B500AF034B0221180004F0C1FAC046BD4680BD0004004806
:2015E00090B583B000AF7B1D00221A703B1D00221A704F4B00221A704E4B01221A704E4B57
:201600004E4A1A6088E0FB1C00221A7080235B014B4A1900100004F09FFAFFF7D5FFFC1D60
:20162000FB1C01211800FFF78BFD03002370FB1D1B78002B07D03E4B1B78002B03D143201A
:20164000FFF7D4FD10E0FB1D1B78002B0CD0384B1B78012B08D13B1D0321180000F0C6F9C3
:2016600003001A007B1D1A70FB1C1B78182B41D044DC022B02DC002B03DC3FE0042B2BD0AF
:201680003CE0FB1C1B78BC1D180000F0B1F803002370BB1D1B78002B03D10620FFF7A6FD3B
:2016A0003AE0BB1D1B78082B0CD13B1D03221A703B1D0321180000F099F903001A007B1DC3
:2016C0001A7029E03B1D0321180000F08FF903001A007B1D1A701FE00620FFF787FD194B29
:2016E0001800FFF74FFD184B1800FFF74BFDFEF72BFE11E07B1DFF221A700DE0FB1D1B78ED
:20170000002B08D13B1D0321180000F06FF903001A007B1D1A70C0467B1D1B78DBB2002BB1
:2017200000D170E7C046C046BD4603B090BDC04658040020000000205404002000800008D0
:2017400000040048BC680008D468000880B584B000AF78600A00BB1C1A800E23FB180022FC
:201760001A8037E0BB1C1A88BB1C013A1A807B685A1C7A601B781B021AB20E217B18002002
:201780001B5E53401AB27B181A800D23FB1800221A701AE00E217B1800229B5E002B08DA71
:2017A0007B181B88DB189AB27B1810494A401A8005E00E23FA18FB181B88DB1813800D2112
:2017C0007B181A787B1801321A700D23FB181B78072BDFD9BB1C1B88002BC3D10E23FB1857
:2017E0001B881800BD4604B080BDC04621100000F0B587B000AF0200FB1D1A701723FB1887
:2018000000221A7014243B1900221A80FFF7DCFEFB1D1B78012B03D13B1980221A800DE0DC
:20182000FB1D1B78022B05D11423FB188022D2001A8003E01723FB18FF221A7013243B193C
:2018400000221A70624B02211800FFF779FC030019003B193A1912780A431A701426BB1957
:201860001A885C4B11001800FFF76AFC030019003B193A1912780A431A70574B0221180099
:20188000FFF75EFC030019003B1925003A1912780A431A70504B1B781B021AB24E4B5B782C
:2018A0001BB213431AB21023FB181A800E23FC18BB191A88474B11001800FFF747FF0300A4
:2018C00023807B191B78002B06D01722BB18BA18127804210A431A701723FB181B78002BCE
:2018E00014D13E4B1B78002B10D13D4B1800FEF797FC031E03D1394B01221A7006E017226E
:20190000BB18BA18127808210A431A7017217B181B78002B29D12E4B1A78324B1B789A421E
:2019200005D07B187A18127802210A431A70284B1B781A00264B5B78D318FF2B06D01722A1
:20194000BB18BA18127802210A431A700E23FA181023FB1812881B889A4206D01722BB18DA
:20196000BA18127801210A431A7017243B191B78002B13D11C4B18681423FB181B889B086A
:201980009BB21A00134B1900FEF77AFC031E05D03B193A19127808210A431A701723FB188A
:2019A0001B78002B0DD10F4B1B780133DAB20D4B1A701423FB181A880B4B1B68D2180A4BF8
:2019C0001A601723FB181B781800BD4607B0F0BD60040020640400205C0400205804002026
:2019E00000800008000000205404002090B585B000AF78600A00FB1C1A700F243B19002272
:201A00001A707B681B780133DAB27B681A707B681B78FA1C12789A4209D81820FFF7E6FBB7
:201A20001820FFF7E3FB3B19FF221A7006E01520FFF7DCFB0F23FB1800221A700F23FB187D
:201A40001B781800BD4605B090BD000080B584B000AF78600F23FB1800221A700023BB60B7
:201A60007B68002B01D1012324E17B685B6C002B0AD17B6800229A647B6840220021995457
:201A80007B681800FFF758F87B685B6C1022134000D002E10F23FB181B78002B00D0FCE074
:201AA0007B681B689B680422134000D0F5E07B685B6C824A134002221A437B685A647B68D1
:201AC0001B689B6803221340012B12D17B681B681B6801221340012B09D07B681B68DA68ED
:201AE00080231B021A4080231B029A4201D1012300E00023002B16D17B681B68DB68182242
:201B0000934319007B689A687B681B680A43DA607B681B681B699B0099087B685A687B6856
:201B20001B680A431A617B681B68DA687B681B6863490A40DA607B689B699A037B68DB6971
:201B4000DB031A437B681B6A5B031A437B685B6B012B02D080235B0100E000231A437B683E
:201B6000DB681A437B681B69022B01D1042300E000231A437B681B6B5B001343BA68134346
:201B8000BB607B685B6A012B15D17B681B6A002B05D1BB68802252021343BB600BE07B68AF
:201BA0005B6C20221A437B685A647B689B6C01221A437B689A647B689A6AC223FF339A42F9
:201BC00007D07B689A6A7B68DB6A1343BA681343BB607B681B68D9687B681B68BA680A43BA
:201BE000DA607B689A6B80235B059A421BD07B689B6B012B17D07B689B6B022B13D07B6821
:201C00009B6B032B0FD07B689B6B042B0BD07B689B6B052B07D07B689B6B062B03D07B68FE
:201C20009B6B072B12D17B681B685A697B681B6807218A435A617B681B6859697B689B6B39
:201C400007221A407B681B680A435A617B681B68DB681C4A1340BA689A420BD17B68002252
:201C60009A647B685B6C0322934301221A437B685A641CE07B685B6C1222934310221A4361
:201C80007B685A647B689B6C01221A437B689A640F23FB1801221A7009E07B685B6C1022A1
:201CA0001A437B685A640F23FB1801221A700F23FB181B781800BD4604B080BDFDFEFFFF57
:201CC0001902FEFFE7FF3F8380B584B000AF786039600F23FB1800221A700023BB607B68A9
:201CE0009A6B80235B059A4211D07B689B6B012B0DD07B689B6B022B09D07B689B6B032B27
:201D000005D07B689B6B042B01D07B689B6B7B6840229B5C012B01D10223D0E07B684022C8
:201D2000012199547B681B689B680422134000D0B4E03B685B68644A934200D182E07B684F
:201D40001B68996A3B681B6801229A407B681B680A439A627B689A6B80235B059A4237D05D
:201D60007B689B6B012B33D07B689B6B022B2FD07B689B6B032B2BD07B689B6B042B27D015
:201D80007B689B6B052B23D07B689B6B062B1FD07B689B6B072B1BD03B689A687B681B681D
:201DA0005B6907210B409A4212D07B681B685A697B681B6807218A435A617B681B685969C7
:201DC0003B689B6807221A407B681B680A435A613B681B68102B07D03B681B68112B03D0FF
:201DE0003B681B68122B63D1384B19683B681B68102B09D03B681B68112B02D18023DB0358
:201E000004E080235B0401E080231B042F4A0B4313603B681B68102B4AD12D4B1B682D4912
:201E20001800FEF771F903001A0013009B009B185B00BB6002E0BB68013BBB60BB68002B8D
:201E4000F9D135E07B681B689A6A3B681B68012199400B00D9437B681B680A409A623B68A2
:201E60001B68102B07D03B681B68112B03D03B681B68122B1CD1154B19683B681B68102B06
:201E800007D03B681B68112B01D1134B02E0134B00E0134B0D4A0B40136009E07B685B6CB3
:201EA00020221A437B685A640F23FB1801221A707B684022002199540F23FB181B781800AD
:201EC000BD4604B080BDC04601100000082701400400002040420F00FFFFBFFFFFFFFFFE1B
:201EE000FFFF7FFF80B582B000AF78607B68002B01D1012341E07B685B7FDBB2002B06D107
:201F00007B6800221A777B681800FEF7ABFE7B6802225A777B68180000F034F8031E01D0B1
:201F200001232AE07B685B79002B05D17B681B68012252421A6104E07B681B687A6812697C
:201F40001A617B681B689B686022934319007B685A697B681B680A439A607B681B689B6870
:201F60008022934319007B689A697B681B680A439A607B6801225A7700231800BD4602B076
:201F800080BD000080B582B000AF78607B681B79002B0CD17B681B680D4A5A617B681B68B9
:201FA0009A687B681B6818218A439A600BE07B6899687B68DA687B68180000F00BF8031EB6
:201FC00001D0012300E000231800BD4602B080BDB71DC10480B586B000AFF860B9607A6001
:201FE0001F237B61C04601227B699A401300BA68134004D17B695A1E7A61002BF3D17B6876
:20200000182B0FD07B68182B1BD87B68102B0ED07B68102B15D87B68002B14D07B68082B76
:202020000AD00EE07B69062B0FD9012322E07B69072B0CD901231DE07B690F2B09D9012375
:2020400018E0C04606E0C04604E0C04602E0C04600E0C046FB681B68BA685A61FB681B6835
:202060009B68182293431900FB681B687A680A439A6000231800BD4606B080BD80B582B08D
:2020800000AF78607B68002B01D1012381E07B685B7FDBB2002B06D17B6800221A777B688F
:2020A0001800FEF787FE7B6802225A777B681B68CA225A627B681B6853225A627B68180016
:2020C00000F011FA031E08D07B681B68FF225A627B6804225A7701235BE07B681B689A6828
:2020E0007B681B682D490A409A607B681B6899687B685A687B681B691A437B685B691A43EC
:202100007B681B680A439A607B681B687A68D2681A617B681B6819697B689B681A047B6846
:202120001B680A431A617B681B68DA687B681B6880218A43DA607B681B689B6820221340A0
:202140000ED17B68180000F0A5F9031E08D07B681B68FF225A627B6804225A77012318E0E5
:202160007B681B681A6C7B681B680D490A401A647B681B68196C7B689A697B681B680A436B
:202180001A647B681B68FF225A627B6801225A7700231800BD4602B080BDC046BFFF8FFF28
:2021A000FFFFFBFF90B587B000AFF860B9607A6000237B61FB681B7F012B01D10223ADE005
:2021C000FB6801221A77FB6802225A777B68002B25D1FB681B689B684022134002D1BB68F8
:2021E0000022DA70BB681B78180000F0A8F903001C04BB685B78180000F0A1F903001B0239
:202200001C43BB689B78180000F099F9030022001A43BB68DB781B0413437B611FE0FB68E4
:202220001B689B684022134007D0BB681B78180000F0A6F903007B6102E0BB680022DA70DF
:20224000BB681B781A04BB685B781B021343BA6892781A43BB68DB781B0413437B61FB688E
:202260001B68CA225A62FB681B6853225A62FB68180000F038F9031E0BD0FB681B68FF227D
:202280005A62FB6804225A77FB6800221A77012344E0FB681B687A6922490A401A60FB686F
:2022A0001B689A68FB681B681F490A409A60FB681B689968BB68DA68BB681B691A43FB6854
:2022C0001B680A439A60FB681B68DA68FB681B6880218A43DA60FB681B689B682022134000
:2022E00011D1FB68180000F0D5F8031E0BD0FB681B68FF225A62FB6804225A77FB68002226
:202300001A7701230AE0FB681B68FF225A62FB6801225A77FB6800221A7700231800BD46B0
:2023200007B090BD7F7F7F00FFFFFBFF90B587B000AFF860B9607A6000237B61FB681B7FB2
:20234000012B01D102239FE0FB6801221A77FB6802225A777B68002B0ED1BB685B781A006F
:202360001023134008D0BB685B7810229343DBB20A33DAB2BB685A707B68002B1CD1BB68A0
:20238000DB78180000F0DBF803001C04BB685B78180000F0D4F803001B021C43BB689B786D
:2023A000180000F0CCF8030022001A43BB681B785B0313437B611CE0BB685B78180000F08F
:2023C000DFF803007B61BB689B78180000F0D8F803007B61BB68DB781A04BB685B781B02B3
:2023E0001343BA6892781A43BB681B785B0313437B61FB681B68CA225A62FB681B685322CF
:202400005A62FB68180000F06EF8031E0BD0FB681B68FF225A62FB6804225A77FB68002291
:202420001A77012330E0FB681B687A6918490A405A60FB681B68DA68FB681B6880218A432D
:20244000DA60FB681B689B682022134011D1FB68180000F01FF8031E0BD0FB681B68FF225D
:202460005A62FB6804225A77FB6800221A7701230AE0FB681B68FF225A62FB6801225A7708
:20248000FB6800221A7700231800BD4607B090BD3FFFFF0080B584B000AF78600023FB6039
:2024A0007B681B68DA687B681B68A0218A43DA6003F074F90300FB600AE003F06FF9020041
:2024C000FB68D21AFA239B009A4201D9032306E07B681B68DB6820221340EED000231800FC
:2024E000BD4604B080BD80B584B000AF78600023FB607B681B68DB68402213401AD17B684E
:202500001B6801225242DA6003F048F90300FB600AE003F043F90200FB68D21AFA239B0093
:202520009A4201D9032306E07B681B68DB6840221340EED000231800BD4604B080BD80B559
:2025400084B000AF0200FB1D1A700023FB6007E0FB680133FB60FB1DFA1D12780A3A1A7016
:20256000FB1D1B78092BF3D8FB68DBB21B01DAB2FB1D1B781343DBB21800BD4604B080BD7F
:2025800080B584B000AF0200FB1D1A700023FB60FB1D1B781B09DBB21A0013009B009B182A
:2025A0005B00FB60FB1D1B780F221340DAB2FB68DBB2D318DBB21800BD4604B080BD000036
:2025C00080B586B000AFF860B9607A6000237B61FB681B7F012B01D102232FE0FB680122E2
:2025E0001A77FB6802225A77FB681B689B68154A13407B617A69BB6813437B61FB681B685D
:20260000CA225A62FB681B6853225A62FB681B687A699A60FB681B689A68FB681B688021C9
:2026200009010A439A60FB681B68FF225A62FB6801225A77FB6800221A7700231800BD46DB
:2026400006B080BDF7F7FFFF80B584B000AF78607B68002B01D101238AE07B6800229A623C
:202660007B685D229B5CDBB2002B07D17B685C22002199547B681800FEF7F2FB7B685D22C3
:20268000022199547B681B681A687B681B6840218A431A607B68DA68E023DB009A4202D97A
:2026A0000023FB6002E080235B01FB607B68DA68F0231B019A4208D07B68DA68E023DB0055
:2026C0009A4202D07B6800229A627B681B6B002B0CD17B68DA68E023DB009A4203D97B683C
:2026E00002221A6302E07B6801221A637B685A687B689B681A437B681B691A437B685B6981
:202700001A437B68996980239B000B401A437B68DB691A437B681B6A1A4311007B689A6A50
:202720007B681B680A431A607B689B691B0C04221A407B685B6A1A437B685B6B1A437B68F0
:20274000DB681A4311007B681B68FA680A435A607B681B68DA697B681B6807490A40DA6115
:202760007B6800221A667B685D220121995400231800BD4604B080BDFFF7FFFF80B588B0D3
:2027800000AFF860B9603B60BB1D1A800023BB611F23FB1800221A70FB685C229B5C012BC8
:2027A00001D102234FE1FB685C220121995402F0F5FF0300BB61FB685D229B5CDBB2012B6B
:2027C00004D01F23FB1802221A7031E1BB68002B03D0BB1D1B88002B04D11F23FB180122FC
:2027E0001A7025E1FB685D2203219954FB6800221A66FB68BA689A63FB68BA1D12889A87DA
:20280000FB68BA1D1288DA87FB6800221A64FB68442200219952FB68462200219952FB6871
:2028200000221A65FB680022DA64FB689A6880231B029A4208D1FB681B681A68FB681B680C
:202840008021C9010A431A60FB681B681B6840221340402B07D0FB681B681A68FB681B6898
:2028600040210A431A60FB68DA68E023DB009A4248D9FB685B68002B04D0FB68DB8F9BB271
:20288000012B39D1BB681A88FB681B68DA60BB680233BB60FB68DB8F9BB2013B9AB2FB68A5
:2028A000DA8729E0FB681B689B6802221340022B0FD1BB681A88FB681B68DA60BB68023304
:2028C000BB60FB68DB8F9BB2013B9AB2FB68DA8712E03B68002B0AD03B6801330CD002F038
:2028E0005DFF0200BB69D31A3A689A4204D81F23FB1803221A709BE0FB68DB8F9BB2002B4B
:20290000D0D171E0FB685B68002B04D0FB68DB8F9BB2012B63D1FB68DB8F9BB2012B0FD9F8
:20292000BB681A88FB681B68DA60BB680233BB60FB68DB8F9BB2023B9AB2FB68DA874EE0AA
:20294000BB685A1CBA60FA6812680C321B781370FB68DB8F9BB2013B9AB2FB68DA873EE010
:20296000FB681B689B6802221340022B24D1FB68DB8F9BB2012B0FD9BB681A88FB681B68FC
:20298000DA60BB680233BB60FB68DB8F9BB2023B9AB2FB68DA8722E0BB685A1CBA60FA680C
:2029A00012680C321B781370FB68DB8F9BB2013B9AB2FB68DA8712E03B68002B0AD03B68A6
:2029C00001330CD002F0EAFE0200BB69D31A3A689A4204D81F23FB1803221A7028E0FB6831
:2029E000DB8F9BB2002BBBD1BA693968FB68180000F016F9031E02D0FB6820221A66FB68B0
:202A00009B68002B0AD100237B61FB681B68DB687B61FB681B689B687B617B69FB681B6E14
:202A2000002B04D01F23FB1801221A7000E0C046FB685D2201219954FB685C2200219954CF
:202A40001F23FB181B781800BD4608B080BD000080B584B000AFF860B9607A603B6050E050
:202A60003B6801334DD03B68002B07D002F096FE0200BB69D31A3A689A4242D8FB681B68A6
:202A80005A68FB681B68E0218A435A60FB685A6882235B009A4213D1FB689A6880231B02FC
:202AA0009A4205D0FB689A688023DB009A4207D1FB681B681A68FB681B6840218A431A60D8
:202AC000FB689A6A80239B019A4210D1FB681B681A68FB681B6814490A401A60FB681B683E
:202AE0001A68FB681B68802189010A431A60FB685D2201219954FB685C2200219954032376
:202B00000EE0FB681B689B68BA681340BA689A4201D1012300E000237A689342A0D1002327
:202B20001800BD4604B080BDFFDFFFFF80B586B000AFF860B9607A603B6062E0BA68C02366
:202B4000DB009A420CD17B68002B09D1FB681B680C331B78DAB217217B181A707B181B783A
:202B60003B6801334DD03B68002B07D002F016FE02003B6AD31A3A689A4242D8FB681B68A4
:202B80005A68FB681B68E0218A435A60FB685A6882235B009A4213D1FB689A6880231B02FB
:202BA0009A4205D0FB689A688023DB009A4207D1FB681B681A68FB681B6840218A431A60D7
:202BC000FB689A6A80239B019A4210D1FB681B681A68FB681B6811490A401A60FB681B6840
:202BE0001A68FB681B68802189010A431A60FB685D2201219954FB685C2200219954032375
:202C000008E0FB681B689B68BA6813407A689A4294D100231800BD4606B080BDFFDFFFFF3E
:202C200080B586B002AFF860B9607A60BA68C0235901F8687B68009313000022FFF776FF58
:202C4000031E07D0FB681B6E20221A43FB681A66032327E0BA68F8687B68009313000022B4
:202C60008021FFF7F5FE031E07D0FB681B6E20221A43FB681A66032314E0BA68C023D9006C
:202C8000F8687B68009313000022FFF74FFF031E07D0FB681B6E20221A43FB681A66032359
:202CA00000E000231800BD4604B080BD80B582B000AF78607B68002B01D101231EE07B6832
:202CC0003D229B5CDBB2002B07D17B683C22002199547B681800FEF7F9F97B683D22022178
:202CE00099547B681A687B6804331900100000F0D1FA7B683D220121995400231800BD46F5
:202D000002B080BD80B582B000AF78607B681B68DA687B681B6801210A43DA607B681B68B9
:202D20001A687B681B6801210A431A6000231800BD4602B080BD80B582B000AF78607B68C4
:202D4000002B01D101231EE07B683D229B5CDBB2002B07D17B683C22002199547B68180041
:202D600000F015F87B683D22022199547B681A687B6804331900100000F08CFA7B683D22A4
:202D80000121995400231800BD4602B080BD80B582B000AF7860C046BD4602B080BD80B5DC
:202DA00082B000AF78607B681B681B6902221340022B24D17B681B68DB6802221340022B8A
:202DC0001DD17B681B68032252421A617B6801221A777B681B689B690322134004D07B683B
:202DE000180000F03FFA07E07B68180000F032FA7B68180000F03EFA7B6800221A777B68F8
:202E00001B681B6904221340042B25D17B681B68DB6804221340042B1ED17B681B68052240
:202E200052421A617B6802221A777B681B689A69C0239B00134004D07B68180000F012FAE6
:202E400007E07B68180000F005FA7B68180000F011FA7B6800221A777B681B681B69082201
:202E60001340082B24D17B681B68DB6808221340082B1DD17B681B68092252421A617B680D
:202E800004221A777B681B68DB690322134004D07B68180000F0E6F907E07B68180000F0E9
:202EA000D9F97B68180000F0E5F97B6800221A777B681B681B6910221340102B25D17B685E
:202EC0001B68DB6810221340102B1ED17B681B68112252421A617B6808221A777B681B68D1
:202EE000DA69C0239B00134004D07B68180000F0B9F907E07B68180000F0ACF97B681800DB
:202F000000F0B8F97B6800221A777B681B681B6901221340012B0FD17B681B68DB68012242
:202F20001340012B08D17B681B68022252421A617B681800FDF72EFC7B681B681B698022FB
:202F40001340802B0FD17B681B68DB6880221340802B08D17B681B68812252421A617B6876
:202F6000180000F091FD7B681B681B6940221340402B0FD17B681B68DB6840221340402B08
:202F800008D17B681B68412252421A617B68180000F078F97B681B681B6920221340202B5A
:202FA0000FD17B681B68DB6820221340202B08D17B681B68212252421A617B68180000F02C
:202FC0005BFDC046BD4602B080BD80B584B000AFF860B9607A60FB683C229B5C012B01D188
:202FE000022344E0FB683C2201219954FB683D22022199547B680C2B27D07B680C2B2CD8B7
:203000007B68082B19D07B68082B26D87B68002B03D07B68042B08D01FE0FB681B68BA68CB
:203020001100180000F0B8F918E0FB681B68BA681100180000F03EFA10E0FB681B68BA687D
:203040001100180000F0C0FA08E0FB681B68BA681100180000F044FB00E0C046FB683D22AD
:2030600001219954FB683C220021995400231800BD4604B080BD000080B584B000AF786053
:2030800039600023FB607B683C229B5C012B01D10223D8E07B683C22012199547B683D2274
:2030A000022199547B681B689B68FB60FB6877229343FB60FB68664A1340FB607B681B68E8
:2030C000FA689A603B681B6880229201934250D080229201934200D9ABE08022520193420C
:2030E00023D080225201934200D9A2E0702B25D000D99EE0602B60D000D99AE0502B4CD02C
:2031000000D996E0402B68D000D992E0302B00D188E000D98DE0202B00D17CE000D988E0DF
:20312000002B6AD0102B6FD083E07B681B689A687B681B6807218A439A607BE07B681868D2
:203140003B6899683B685A683B68DB6800F0C0FB7B681B689B68FB60FB6877229343FB60E4
:20316000FB6877221343FB607B681B68FA689A6060E07B6818683B6899683B685A683B6891
:20318000DB6800F0A5FB7B681B689A687B681B688021C9010A439A604CE07B6818683B68AA
:2031A00059683B68DB681A0000F00AFB7B681B685021180000F06CFB3CE07B6818683B68F1
:2031C00059683B68DB681A0000F02CFB7B681B686021180000F05CFB2CE07B6818683B68BF
:2031E00059683B68DB681A0000F0EAFA7B681B684021180000F04CFB1CE07B681B680021A1
:20320000180000F045FB15E07B681B681021180000F03EFB0EE07B681B682021180000F0FC
:2032200037FB07E07B681B683021180000F030FB00E0C0467B683D22012199547B683C2213
:203240000021995400231800BD4604B080BDC046FF00FFFF80B582B000AF7860C046BD4637
:2032600002B080BD80B582B000AF7860C046BD4602B080BD80B582B000AF7860C046BD4682
:2032800002B080BD80B582B000AF7860C046BD4602B080BD80B584B000AF786039600023AD
:2032A000FB607B681B68FB607B68344A934208D07A688023DB059A4203D07B68304A93429E
:2032C00008D1FB6870229343FB603B685B68FA681343FB607B68294A934218D07A688023DE
:2032E000DB059A4213D07B68254A93420FD07B68244A93420BD07B68234A934207D07B6849
:20330000224A934203D07B68214A934208D1FB68204A1340FB603B68DB68FA681343FB6029
:20332000FB68802293431A003B685B691343FB607B68FA681A603B689A687B68DA623B685A
:203340001A687B689A627B680C4A93420BD07B680D4A934207D07B680C4A934203D07B6879
:203360000B4A934203D13B681A697B681A637B6801225A61C046BD4604B080BD002C0140A1
:203380000004004000200040004001400044014000480140FFFCFFFF80B586B000AF78600F
:2033A00039600023FB6000237B6100233B617B681B6A012293431A007B681A627B681B6AF6
:2033C0007B617B685B683B617B689B69FB60FB6870229343FB60FB6803229343FB603B680B
:2033E0001B68FA681343FB607B69022293437B613B689B687A6913437B617B68274A934299
:203400000BD07B68264A934207D07B68254A934203D07B68244A93420CD17B6908229343F1
:203420007B613B68DB687A6913437B617B69042293437B617B68194A93420BD07B68184ABE
:20344000934207D07B68174A934203D07B68164A934211D13B69154A13403B613B69144AE6
:2034600013403B613B685B693A6913433B613B689B693A6913433B617B683A695A607B6802
:20348000FA689A613B685A687B685A637B687A691A62C046BD4606B080BDC046002C014019
:2034A000004001400044014000480140FFFEFFFFFFFDFFFF80B586B000AF786039600023DA
:2034C000FB6000237B6100233B617B681B6A102293431A007B681A627B681B6A7B617B68C3
:2034E0005B683B617B689B69FB60FB682E4A1340FB60FB682D4A1340FB603B681B681B02D7
:20350000FA681343FB607B69202293437B613B689B681B017A6913437B617B68244A9342C3
:203520000DD17B69802293437B613B68DB681B017A6913437B617B69402293437B617B6883
:203540001B4A93420BD07B681A4A934207D07B68194A934203D07B68184A934213D13B69D3
:20356000174A13403B613B69164A13403B613B685B699B003A6913433B613B689B699B002F
:203580003A6913433B617B683A695A607B68FA689A613B685A687B689A637B687A691A628F
:2035A000C046BD4606B080BDFF8FFFFFFFFCFFFF002C01400040014000440140004801408E
:2035C000FFFBFFFFFFF7FFFF80B586B000AF786039600023FB6000237B6100233B617B6855
:2035E0001B6A354A1A407B681A627B681B6A7B617B685B683B617B68DB69FB60FB68702211
:203600009343FB60FB6803229343FB603B681B68FA681343FB607B69284A13407B613B685F
:203620009B681B027A6913437B617B68244A93420DD17B69234A13407B613B68DB681B02CE
:203640007A6913437B617B691F4A13407B617B681B4A93420BD07B681C4A934207D07B6809
:203660001B4A934203D07B681A4A934213D13B69194A13403B613B69184A13403B613B68AF
:203680005B691B013A6913433B613B689B691B013A6913433B617B683A695A607B68FA68D8
:2036A000DA613B685A687B68DA637B687A691A62C046BD4606B080BDFFFEFFFFFFFDFFFF17
:2036C000002C0140FFF7FFFFFFFBFFFF004001400044014000480140FFEFFFFFFFDFFFFF3A
:2036E00080B586B000AF7860396000233B610023FB6000237B617B681B6A284A1A407B68EC
:203700001A627B681B6AFB607B685B687B617B68DB693B613B69224A13403B613B69214A17
:2037200013403B613B681B681B023A6913433B61FB681D4A1340FB603B689B681B03FA6824
:203740001343FB607B68194A93420BD07B68184A934207D07B68174A934203D07B68164AA2
:20376000934209D17B69154A13407B613B685B699B017A6913437B617B687A695A607B68AD
:203780003A69DA613B685A687B681A647B68FA681A62C046BD4606B080BDC046FFEFFFFFD6
:2037A000FF8FFFFFFFFCFFFFFFDFFFFF002C0140004001400044014000480140FFBFFFFFF0
:2037C00080B586B000AFF860B9607A6000237B6100233B61FB681B6A3B61FB681B6A012237
:2037E00093431A00FB681A62FB689B697B617B69F02293437B617B681B017A6913437B61FB
:203800003B690A2293433B613A69BB6813433B61FB687A699A61FB683A691A62C046BD46E2
:2038200006B080BD80B586B000AFF860B9607A6000237B6100233B61FB681B6A1022934382
:203840001A00FB681A62FB689B697B61FB681B6A3B617B690D4A13407B617B681B037A695A
:2038600013437B613B69A02293433B61BB681B013A6913433B61FB687A699A61FB683A6923
:203880001A62C046BD4606B080BDC046FF0FFFFF80B584B000AF78600A00BB1C1A80002310
:2038A000FB607B689B68FB60FB6870229343FB60BB1C1B88072213439BB21A00FB6813432D
:2038C000FB607B68FA689A60C046BD4604B080BD80B586B000AFF860B9607A603B60002331
:2038E0007B61FB689B687B617B69094A13407B613B681A027B681A43BB6813437A69134393
:203900007B61FB687A699A60C046BD4606B080BDFF00FFFF80B582B000AF786039607B6828
:203920003C229B5C012B01D1022332E07B683C22012199547B683D22022199547B681B68F5
:203940005A687B681B6870218A435A607B681B6859683B681A687B681B680A435A607B688B
:203960001B689A687B681B6880218A439A607B681B6899683B685A687B681B680A439A607B
:203980007B683D22012199547B683C220021995400231800BD4602B080BD000080B584B0F1
:2039A00000AF786039600023FB607B683C229B5C012B01D102234DE07B683C220121995491
:2039C0007B683D2202219954FB68FF2293431A003B68DB681343FB60FB68204A1A403B68C0
:2039E0009B681343FB60FB681D4A1A403B685B681343FB60FB681B4A1A403B681B6813433A
:203A0000FB60FB68184A1A403B681B691343FB60FB68164A1A403B685B691343FB60FB68BC
:203A2000134A1A403B689B691343FB60FB68114A1A403B689B691343FB607B681B68FA683F
:203A40005A647B683D22012199547B683C220021995400231800BD4604B080BDFFFCFFFFE0
:203A6000FFFBFFFFFFF7FFFFFFEFFFFFFFDFFFFFFFBFFFFFFF7FFFFF80B582B000AF78606C
:203A8000C046BD4602B080BD80B582B000AF7860C046BD4602B080BD80B582B000AF78605A
:203AA0007B68002B01D1012347E07B6869229B5CDBB2002B07D17B686822002199547B6888
:203AC0001800FDF71FFC7B686922242199547B681B681A687B681B6801218A431A607B6885
:203AE000180000F067FB0300012B01D1012324E07B685B6A002B03D07B68180000F01AFD8B
:203B00007B681B685A687B681B680E490A405A607B681B689A687B681B682A218A439A60DC
:203B20007B681B681A687B681B6801210A431A607B68180000F0B2FD03001800BD4602B0E4
:203B400080BDC046FFB7FFFF80B588B002AFF860B9603B60BB1D1A8000237B61FB686922E5
:203B60009B5CDBB2202B00D08CE0BB68002B03D0BB1D1B88002B01D1012384E0FB689A68B4
:203B800080235B019A4209D1FB681B69002B05D1BB680122134001D0012374E0FB686822B9
:203BA0009B5C012B01D102236DE0FB68682201219954FB680022DA66FB68692221219954C0
:203BC00001F0ECFD03007B61FB68BA1D502112885A52FB68BA1D522112885A5235E0FB68D0
:203BE00052229B5A9BB2013B99B2FB68522299527A69F8683B68009313000022802100F087
:203C0000A3FD031E01D003233DE0FB689A6880235B019A4211D1FB681B69002B0DD1BB689A
:203C20003B613B691A88FB681B68D205D20D92B21A85BB680233BB6007E0BB685A1CBA6016
:203C40001A78FB681B6892B21A85FB6852229B5A9BB2002BC3D17A69F8683B6800931300A5
:203C60000022402100F070FD031E01D003230AE0FB68692220219954FB686822002199544B
:203C8000002300E002231800BD4606B080BD000080B58AB002AFF860B9603B60BB1D1A8050
:203CA0000023FB61FB686A229B5CDBB2202B00D0C8E0BB68002B03D0BB1D1B88002B01D1B6
:203CC0000123C0E0FB689A6880235B019A4209D1FB681B69002B05D1BB680122134001D0B4
:203CE0000123B0E0FB6868229B5C012B01D10223A9E0FB68682201219954FB680022DA66BF
:203D0000FB686A222221995401F048FD0300FB61FB68BA1D582112885A52FB68BA1D5A2141
:203D200012885A52FB689A6880235B019A420DD1FB681B69002B04D1FB685C2244499952DF
:203D400029E0FB685C22FF21995224E0FB689B68002B0DD1FB681B69002B04D1FB685C2233
:203D6000FF21995217E0FB685C227F21995212E0FB689A6880235B059A420CD1FB681B69DB
:203D8000002B04D1FB685C227F21995203E0FB685C223F2199521A23FB18FA685C21525ACD
:203DA0001A803FE0FB685A229B5A9BB2013B99B2FB685A229952FA69F8683B6800931300CC
:203DC0000022202100F0C0FC031E01D003233AE0FB689A6880235B019A4214D1FB681B6996
:203DE000002B10D1BB687B61FB681B689B8C9BB21A22BA18128813409AB27B691A80BB6876
:203E00000233BB600EE0FB681B689B8C9BB2DAB21A23FB181B88D9B2BB68581CB8600A4007
:203E2000D2B21A70FB685A229B5A9BB2002BB9D1FB686A2220219954FB6868220021995486
:203E4000002300E002231800BD4608B080BDC046FF01000080B582B000AF78607B681B68D0
:203E60001A687B681B682E490A401A607B681B689A687B681B6801218A439A607B681B6802
:203E80009B688022134014D07B681B689A687B681B6880218A439A607B681B6E002B08D0A1
:203EA0007B681B6E00225A637B681B6E180001F0DFFE7B681B689B684022134014D07B6880
:203EC0001B689A687B681B6840218A439A607B685B6E002B08D07B685B6E00225A637B68B2
:203EE0005B6E180001F0C4FE7B685222002199527B685A22002199527B681B680F221A624D
:203F00007B686922202199547B686A22202199547B680022DA6600231800BD4602B080BDF6
:203F20001FFEFFFF80B586B000AF78607B681B68DB697B617B681B681B683B617B690F2254
:203F40001340FB60FB68002B0CD17B692022134008D03B692022134004D07B68180000F0FF
:203F6000E5FCEEE07B681B689B68BB60FB68002B00D1AFE0BB680122134005D13A6990235B
:203F80005B00134000D1A5E07B69012213400ED03A6980235B00134009D07B681B6801228F
:203FA0001A627B68DB6E01221A437B68DA667B69022213400DD0BB680122134009D07B6829
:203FC0001B6802221A627B68DB6E04221A437B68DA667B69042213400DD0BB680122134019
:203FE00009D07B681B6804221A627B68DB6E02221A437B68DA667B690822134011D03B692A
:204000002022134003D1BB680122134009D07B681B6808221A627B68DB6E08221A437B6823
:20402000DA667B68DB6E002B00D189E07B692022134007D03B692022134003D07B68180058
:2040400000F074FC7B68DB6E0822134005D17B681B689B684022134032D07B68180000F076
:20406000BFFB7B681B689B684022134023D07B681B689A687B681B6840218A439A607B689C
:204080005B6E002B12D07B685B6E2F4A5A637B685B6E180001F015FE031E19D07B685B6EEA
:2040A0005A6B7B685B6E1800904711E07B68180000F05CF80CE07B68180000F057F807E063
:2040C0007B68180000F052F87B680022DA6637E0C04635E07A6980235B03134016D0BA68F5
:2040E0008023DB03134011D07B681B68802252031A627B686922202199547B686A222021E6
:2041000099547B68180000F08BFC1AE07B698022134008D03B698022134004D07B6818002D
:2041200000F093FB0DE07B694022134009D03B694022134005D07B68180000F0DDFB00E0D1
:20414000C046BD4606B080BD1D48000880B582B000AF7860C046BD4602B080BD80B582B0A9
:2041600000AF7860C046BD4602B080BD80B582B000AF7860C046BD4602B080BD80B584B071
:2041800000AF78600023FB600023BB607B6869229B5CDBB2FB607B686A229B5CDBB2BB6081
:2041A000FB68DAB2BB68DBB21343DBB21800BD4604B080BD90B587B000AF78600023FB60F0
:2041C0001723FB1810221A700A23FB1800221A801423FB1800221A801323FB1800221A70DF
:2041E0007B689A687B681B691A437B685B691A437B68DB691343FB607B681B681B68C34A44
:20420000134019007B681B68FA680A431A607B681B685B68BE4A134019007B68DA687B68FE
:204220001B680A435A607B689A697B681B6A1343FB607B681B689B68B64A134019007B683D
:204240001B68FA680A439A607B681B68B24A934227D1B24B1B6B03221340032B0DD01BD80A
:20426000022B14D018D8002B02D0012B0AD013E01723FB1800221A7065E01723FB18022298
:204280001A7060E01723FB1804221A705BE01723FB1808221A7056E01723FB1810221A70DC
:2042A00051E07B681B689E4A934234D19B4B1A6BC0239B021340C0229202934217D0C02253
:2042C0009202934222D880229202934219D08022920293421AD8002B04D0802252029342C0
:2042E0000AD013E01723FB1800221A702BE01723FB1802221A7026E01723FB1804221A70EF
:2043000021E01723FB1808221A701CE01723FB1810221A7017E07B681B68824A934204D1C3
:204320001723FB1800221A700DE07B681B687E4A934204D11723FB1800221A7003E01723A9
:20434000FB1810221A707B68DA6980231B029A4200D077E01723FB181B78082B41D052DC53
:20436000042B2AD04FDC002B02D0022B14D04AE001F090F803005A007B685B685B08D218E8
:204380007B685B6819001000FBF7BEFE03001A001423FB181A803BE07B685B685B08634ACE
:2043A0009A187B685B6819001000FBF7ADFE03001A001423FB181A802AE000F0E1FF030001
:2043C0005A007B685B685B08D2187B685B6819001000FBF799FE03001A001423FB181A8037
:2043E00016E07B685B685B08802252029A187B685B6819001000FBF787FE03001A0014237C
:20440000FB181A8004E01323FB1801221A70C0460A203B1814243A1912880F218A431A80D6
:204420003B191B885B109BB20722134099B23B183A1812880A431A807B681B683A1812888E
:20444000DA605BE01723FB181B78082B3FD050DC042B29D04DDC002B02D0022B13D048E013
:2044600001F018F802007B685B685B08D2187B685B6819001000FBF747FE03009AB27B680E
:204480001B68DA603AE07B685B685B08284A9A187B685B6819001000FBF736FE03009AB2D4
:2044A0007B681B68DA6029E000F06AFF02007B685B685B08D2187B685B6819001000FBF744
:2044C00023FE03009AB27B681B68DA6016E07B685B685B08802212029A187B685B681900A6
:2044E0001000FBF711FE03009AB27B681B68DA6004E01323FB1801221A70C0461323FB1893
:204500001B781800BD4607B090BDC046F369FFEFFFCFFFFFFFF4FFFF003801400010024011
:204520000044004000480040004C00400024F40000127A0080B582B000AF78607B685B6AA9
:20454000012213400BD07B681B685B684A4A134019007B689A6A7B681B680A435A607B68AA
:204560005B6A022213400BD07B681B685B68434A134019007B68DA6A7B681B680A435A606E
:204580007B685B6A042213400BD07B681B685B683B4A134019007B681A6B7B681B680A43EA
:2045A0005A607B685B6A082213400BD07B681B685B68344A134019007B685A6B7B681B6820
:2045C0000A435A607B685B6A102213400BD07B681B689B682C4A134019007B689A6B7B68B6
:2045E0001B680A439A607B685B6A202213400BD07B681B689B68254A134019007B68DA6B6D
:204600007B681B680A439A607B685B6A402213401DD07B681B685B681D4A134019007B68C4
:204620001A6C7B681B680A435A607B681A6C80235B039A420BD17B681B685B68154A13408A
:2046400019007B685A6C7B681B680A435A607B685B6A802213400BD07B681B685B680E4A32
:20466000134019007B689A6C7B681B680A435A60C046BD4602B080BDFFFFFDFFFFFFFEFF8B
:20468000FFFFFBFFFF7FFFFFFFEFFFFFFFDFFFFFFFFFEFFFFFFF9FFFFFFFF7FF80B586B0F7
:2046A00002AF78600023FB607B680022DA6601F075F80300FB607B681B68204A934204D079
:2046C0007B681B681E4A934227D17B681B681B6808221340082B0CD1FB6880229103786850
:2046E000184A0092002200F02FF8031E01D0032320E07B681B681B6804221340042B0CD107
:20470000FB688022D10378680E4A0092002200F01BF8031E01D003230CE07B68692220211E
:2047200099547B686A22202199547B6868220021995400231800BD4604B080BD00380140CC
:2047400000440040FFFFFF0180B584B000AFF860B9603B60FB1D1A702BE0BB69013328D0B6
:20476000BB69002B07D001F019F802003B68D31ABA699A421DD2FB681B681A68FB681B6843
:2047800016490A401A60FB681B689A68FB681B6801218A439A60FB68692220219954FB68C0
:2047A0006A2220219954FB6868220021995403230FE0FB681B68DB69BA681340BA68D31A81
:2047C0005A425341DBB21A00FB1D1B789A42C4D000231800BD4604B080BDC0465FFEFFFF57
:2047E00080B582B000AF78607B681B681A687B681B6809490A401A607B681B689A687B681C
:204800001B6801218A439A607B686A2220219954C046BD4602B080BDDFFEFFFF80B584B053
:2048200000AF78607B685B6AFB60FB685A2200219952FB68522200219952FB681800FFF7AF
:2048400095FCC046BD4604B080BD80B584B000AF78607B6869229B5CDBB2212B47D17B68A4
:2048600052229B5A9BB2002B11D17B681B681A687B681B6880218A431A607B681B681A6857
:204880007B681B6840210A431A60002330E07B689A6880235B019A4214D17B681B69002B20
:2048A00010D17B68DB6CFB60FB681A887B681B68D205D20D92B21A857B68DB6C9A1C7B68CB
:2048C000DA6409E07B68DB6C591C7A68D1641A787B681B6892B21A857B6852229B5A9BB287
:2048E000013B99B27B6852229952002300E002231800BD4604B080BD80B582B000AF7860CD
:204900007B681B681A687B681B6840218A431A607B686922202199547B681800FFF716FC02
:2049200000231800BD4602B080BD000090B585B000AF78600E203B187A685C21525A1A8023
:204940007B686A229B5CDBB2222B59D17B681A680C217B18928C1A807B689A6880235B012C
:204960009A4214D17B681B69002B10D17B685B6DBB607B183A181B88128813409AB2BB6859
:204980001A807B685B6D9A1C7B685A6510E00C23FB181B88D9B20E23FB181B88D8B27B68C6
:2049A0005B6D5C1C7A68546502000A40D2B21A707B685A229B5A9BB2013B9BB27A685A213B
:2049C000181C5052002B19D17B681B681A687B681B6812490A401A607B681B689A687B6834
:2049E0001B6801218A439A607B686A22202199547B681800FFF7B2FB00230AE0002308E0F8
:204A00007B681B689A697B681B6808210A439A6102231800BD4605B090BDC046DFFEFFFF33
:204A200080B582B000AF7860C046BD4602B080BD80B586B000AF786000233B617B681B6879
:204A40000122134000D18DE0C44B5B680C221340042B0ED0C14B5B680C221340082B16D1D8
:204A6000BE4B5A68C0235B021A4080235B029A420DD1BA4B1A6880239B02134000D170E0DC
:204A80007B685B68002B00D06BE0012327E37B685B68012B07D1B14B1A68B04B80214902ED
:204AA0000A431A602FE07B685B68002B0CD1AB4B1A68AA4BAA490A401A60A84B1A68A74BE7
:204AC000A8490A401A601EE07B685B68052B0ED1A24B1A68A14B8021C9020A431A609F4BF6
:204AE0001A689E4B802149020A431A600BE09B4B1A689A4B9A490A401A60984B1A68974B72
:204B000098490A401A607B685B68002B14D000F045FE03003B6108E000F040FE02003B69AD
:204B2000D31A642B01D90323D9E28C4B1A6880239B021340F0D015E000F030FE03003B61E0
:204B400008E000F02BFE02003B69D31A642B01D90323C4E2814B1A6880239B021340F0D1EA
:204B600000E0C0467B681B680222134000D16CE07A4B5B680C2213400ED0784B5B680C22BA
:204B80001340082B1FD1754B5A68C0235B021A4080231B029A4216D1704B1B68022213404B
:204BA00005D07B68DB68012B01D0012397E26B4B1B68F822934319007B681B69DA00674B2B
:204BC0000A431A6041E07B68DB68002B24D0634B1A68624B01210A431A6000F0DFFD030013
:204BE0003B6108E000F0DAFD02003B69D31A022B01D9032373E2594B1B6802221340F1D0F6
:204C0000564B1B68F822934319007B681B69DA00524B0A431A6018E0504B1A684F4B0121F1
:204C20008A431A6000F0BAFD03003B6108E000F0B5FD02003B69D31A022B01D903234EE26D
:204C4000464B1B6802221340F1D17B681B680822134036D07B68DB69002B19D03F4B5A6A95
:204C60003E4B01210A435A6200F098FD03003B6108E000F093FD02003B69D31A022B01D95A
:204C800003232CE2354B5B6A02221340F1D018E0324B5A6A314B01218A435A6200F07EFD98
:204CA00003003B6108E000F079FD02003B69D31A022B01D9032312E2284B5B6A02221340A4
:204CC000F1D17B681B680422134000D1B4E017203B1800221A70214BDA6980235B05134093
:204CE00010D11E4BDA691D4B802149050A43DA611A4BDA6980235B051340FB60FB683B1839
:204D000001221A70184B1A6880235B0013401AD1154B1A68144B802149000A431A6000F0E3
:204D20003DFD03003B6108E000F038FD02003B69D31A642B01D90323D1E10B4B1A6880233E
:204D40005B001340F0D07B689B68012B0ED1034B1A6A024B01210A431A6235E00010024083
:204D6000FFFFFEFFFFFFFBFF007000407B689B68002B0CD1CA4B1A6AC94B01218A431A628A
:204D8000C74B1A6AC64B04218A431A621CE07B689B68052B0CD1C24B1A6AC14B04210A4300
:204DA0001A62BF4B1A6ABE4B01210A431A620BE0BB4B1A6ABA4B01218A431A62B84B1A6A89
:204DC000B74B04218A431A627B689B68002B14D000F0E4FC03003B6109E000F0DFFC020049
:204DE0003B69D31AAF4A934201D9032377E1AC4B1B6A02221340F0D013E000F0CFFC030098
:204E00003B6109E000F0CAFC02003B69D31AA54A934201D9032362E1A14B1B6A02221340D5
:204E2000F0D11723FB181B78012B05D19C4BDA699B4B9D490A40DA617B681B681022134069
:204E400063D07B685B69012B2AD1954B5A6B944B04210A435A63924B5A6B914B01210A43B1
:204E60005A6300F09BFC03003B6108E000F096FC02003B69D31A022B01D903232FE1884B42
:204E80005B6B02221340F1D0854B5B6BF822934319007B689B69DA00814B0A435A6334E0CA
:204EA0007B685B69053311D17D4B5A6B7C4B04218A435A637A4B5B6BF822934319007B68B7
:204EC0009B69DA00764B0A435A631EE0744B5A6B734B04210A435A63714B5A6B704B01215C
:204EE0008A435A6300F05AFC03003B6108E000F055FC02003B69D31A022B01D90323EEE08C
:204F0000674B5B6B02221340F1D17B681B68202213405CD0624B5B680C2213400C2B0ED0B3
:204F20005F4B5B680C221340082B14D15C4B5A68C0235B021A40C0235B029A420BD1584BCD
:204F40005A6B80235B02134040D07B681B6A012B3CD00123C3E07B681B6A002B1BD0504BA9
:204F60005A6B4F4B802149020A435A6300F016FC03003B6108E000F011FC02003B69D31AC3
:204F8000022B01D90323AAE0454B5A6B80235B021340F0D01BE0424B5A6B414B43490A4043
:204FA0005A6300F0FBFB03003B6108E000F0F6FB02003B69D31A022B01D903238FE0384B34
:204FC0005A6B80235B021340F0D100E0C0467B685B6A002B00D181E0314B5B680C2213404D
:204FE000082B00D178E07B685B6A022B4CD12C4B1A682B4B2E490A401A6000F0CFFB0300FC
:205000003B6108E000F0CAFB02003B69D31A022B01D9032363E0224B1A6880239B041340D0
:20502000F0D11F4BDB6A0F22934319007B681A6B1B4B0A43DA621A4B5B681E4A134019008D
:205040007B68DA6A7B689B6A1A43154B0A435A60134B1A68124B802149040A431A6000F09B
:205060009DFB03003B6108E000F098FB02003B69D31A022B01D9032331E0094B1A68802344
:205080009B041340F0D029E0054B1A68044B08490A401A6000F082FB03003B6115E0C04618
:2050A0000010024088130000FFFFFFEFFFFFFEFFFFFFFFFEFF7FC2FF00F070FB02003B69E1
:2050C000D31A022B01D9032309E0074B1A6880239B041340F0D101E0012300E00023180083
:2050E000BD4606B080BDC0460010024080B584B000AF786039600023FB607B4B1B680122EF
:2051000013403A689A4211D9774B1B68012293431900754B3A680A431A60734B1B680122F0
:2051200013403A689A4201D00123D8E07B681B680222134009D06D4B5B68F02293431900BF
:205140007B689A68694B0A435A607B681B680122134000D189E07B685B68012B07D1634B41
:205160001A6880239B02134020D10123B7E07B685B68022B07D15D4B1A6880239B04134004
:2051800014D10123ABE07B685B68032B07D1574B5A6B80235B02134008D101239FE0534BFB
:2051A0001B680222134001D1012398E04F4B5B680322934319007B685A684C4B0A435A60D3
:2051C00000F0ECFA0300FB607B685B68012B11D109E000F0E3FA0200FB68D31A444A93427C
:2051E00001D903237BE0414B5B680C221340042BEFD13AE07B685B68022B11D109E000F0ED
:20520000CDFA0200FB68D31A394A934201D9032365E0364B5B680C221340082BEFD124E01C
:205220007B685B68032B1BD109E000F0B7FA0200FB68D31A2E4A934201D903234FE02B4BE0
:205240005B680C2213400C2BEFD10EE000F0A6FA0200FB68D31A264A934201D903233EE0E0
:20526000224B5B680C221340F0D11F4B1B68012213403A689A4211D21B4B1B680122934316
:205280001900194B3A680A431A60174B1B68012213403A689A4201D0012320E07B681B68F4
:2052A0000422134009D0114B5B68124A134019007B68DA680D4B0A435A6000F061F80100E7
:2052C0000A4B5B681B090F2213400B4AD35C0A00DA400A4B1A600020FCF718F90023180038
:2052E000BD4604B080BDC046002002400010024088130000FFF8FFFF1869000804000020C3
:2053000080B58AB000AFF860B9607A6014203B1802225A603B180322DA603B1800229A609E
:205320003B18802252001A603B1800221A61124B5A69114B802189020A435A610E4B5A69F0
:2053400080239B0213403B613B693A189023DB051100180000F04AFA074B5B68074A13407F
:205360001900BA687B681A43034B0A435A60C046BD460AB080BDC04600100240FFFFFF8088
:2053800090B58FB000AF1423FB18384A13CA13C312681A603B1D364A13CA13C312681A60E8
:2053A0000023FB620023BB6200237B6300237B6200233B632F4B5B68FB62FB6A0C221340EB
:2053C0000C2B47D049D8042B02D0082B03D044E0294B3B6344E0FB6A9B0C0F221340142237
:2053E000BA18D35C7B62234BDB6A0F2213403A1DD35CBB62FA6AC0235B021A4080235B02F7
:205400009A4209D1B96A1C48FAF77EFE03001A007B6A53437B631AE0FA6AC0235B021A4074
:20542000C0235B029A4209D1B96A1448FAF76CFE03001A007B6A53437B6308E0B96A0E48C5
:20544000FAF762FE03001A007B6A53437B637B6B3B6305E0094B3B6302E0074B3B63C04652
:205460003B6B1800BD460FB090BDC046F8680008086900080010024000127A00006CDC0250
:2054800080B500AF024B1B681800BD4680BDC0460400002080B500AFFFF7F2FF0100064BB9
:2054A0005B681B0A07221340044AD35CD9400B001800BD4680BDC04600100240286900089E
:2054C00080B582B000AF786039607B6807221A600E4B5B6803221A407B685A600B4B5B686E
:2054E000F0221A407B689A60084B5A68E023DB001A407B68DA60064B1B6801221A403B6805
:205500001A60C046BD4602B080BDC046001002400020024080B586B000AF786000233B61AE
:205520000023FB607B681A6880235B02134000D18EE017203B1800221A706E4BDA69802321
:205540005B05134010D16B4BDA696A4B802149050A43DA61674BDA6980235B051340BB602C
:20556000BB683B1801221A70634B1A6880235B0013401AD1604B1A685F4B802149000A438E
:205580001A6000F00BF903003B6108E000F006F902003B69D31A642B01D90323A6E0564BDE
:2055A0001A6880235B001340F0D0524B1A6AC0239B001340FB60FB68002B34D07B685A68D4
:2055C000C0239B001340FA689A422CD0494B1B6A4A4A1340FB60474B1A6A464B80214902D2
:2055E0000A431A62434B1A6A424B45490A401A62404BFA681A62FB680122134013D000F0DA
:20560000CDF803003B6109E000F0C8F802003B69D31A3C4A934201D9032367E0354B1B6A53
:2056200002221340F0D0334B1B6A344A134019007B685A682F4B0A431A621723FB181B787E
:20564000012B05D12B4BDA692A4B2F490A40DA617B681B680122134009D0264B1B6B03224C
:20566000934319007B689A68224B0A431A637B681B680222134009D01E4B1B6B234A1340BA
:2056800019007B68DA681B4B0A431A637B681B682022134009D0174B1B6B102293431900BF
:2056A0007B681A69134B0A431A637B681A6880239B02134009D00F4B1B6B8022934319001A
:2056C0007B689A690B4B0A431A637B681A688023DB00134009D0074B1B6B4022934319008C
:2056E0007B685A69034B0A431A6300231800BD4606B080BD0010024000700040FFFCFFFFC0
:20570000FFFFFEFF88130000FFFFFFEFFFFFFCFF80B500AF074B1A68064B10210A431A600D
:205720000020FBF7F3FEFBF7CDFE00231800BD4680BDC0460020024080B500AF0D4B012267
:2057400052421A610B4B00221A610A4B01225242DA60084B0022DA60064B012252429A624E
:20576000044B00229A6200F007F800231800BD4680BDC0460010024080B500AFC046BD460D
:2057800080BD000080B500AF034B1B685A1C024B1A60C046BD4680BD3C0B002080B500AF49
:2057A000024B1B681800BD4680BDC0463C0B002080B584B000AF7860FFF7F0FF0300BB6061
:2057C0007B68FB60FB68013302D0FB680133FB60C046FFF7E3FF0200BB68D31AFA689A4202
:2057E000F7D8C046C046BD4604B080BD80B586B000AF7860396000237B610023FB600023AF
:205800003B6155E13B681B6801217A6991400A001340FB60FB68002B00D146E13B685B6816
:20582000022B03D03B685B68122B23D17B69DA087B6808329200D3583B617B690722134035
:205840009B000F229A401300DA433B6913403B613B681A697B6907210B409B009A401300DA
:205860003A6913433B617B69DA087B68083292003969D1507B681B683B617B695B000322F5
:205880009A401300DA433B6913403B613B685B6803221A407B695B009A4013003A69134361
:2058A0003B617B683A691A603B685B68012B0BD03B685B68022B07D03B685B68112B03D000
:2058C0003B685B68122B30D17B689B683B617B695B0003229A401300DA433B6913403B61A1
:2058E0003B68DA687B695B009A4013003A6913433B617B683A699A607B685B683B6101221D
:205900007B699A401300DA433B6913403B613B685B681B0901221A407B699A4013003A698B
:2059200013433B617B683A695A607B68DB683B617B695B0003229A401300DA433B6913400E
:205940003B613B689A687B695B009A4013003A6913433B617B683A69DA603B685A6880237D
:205960005B05134000D1A0E0574B9A69564B01210A439A61544B9B6901221340BB60BB681C
:20598000524A7B699B0802339B009B583B617B69032213409B000F229A401300DA433B69AF
:2059A00013403B617A689023DB059A4219D07B68474A934213D07B68464A93420DD07B688A
:2059C000454A934207D07B68444A934201D1042308E0052306E0032304E0022302E0012322
:2059E00000E000237A6903210A40920093403A6913433B6135497B699B0802339B003A69E1
:205A00005A50374B1B683B61FB68DA433B6913403B613B685A6880235B02134003D03A69FA
:205A2000FB6813433B612E4B3A691A602C4B5B683B61FB68DA433B6913403B613B685A682D
:205A400080239B02134003D03A69FB6813433B61234B3A695A60224B9B683B61FB68DA4391
:205A60003B6913403B613B685A6880235B03134003D03A69FB6813433B61194B3A699A600E
:205A8000174BDB683B61FB68DA433B6913403B613B685A6880239B03134003D03A69FB68E0
:205AA00013433B610E4B3A69DA607B6901337B613B681A687B69DA40131E00D0A2E6C04618
:205AC000C046BD4606B080BD00100240000001400004004800080048000C004800100048EF
:205AE0000004014080B584B000AF78600A00BB1C1A807B681B69BA1C1288134004D00F23C6
:205B0000FB1801221A7003E00F23FB1800221A700F23FB181B781800BD4604B080BD80B5D8
:205B200082B000AF786008001100BB1C021C1A807B1C0A1C1A707B1C1B78002B04D0BB1CBD
:205B40001A887B689A6103E0BB1C1A887B689A62C046BD4602B080BD80B582B000AF7860A4
:205B60000A00BB1C1A807B685A69BB1C1B885A407B685A61C046BD4602B080BD80B582B0F3
:205B800000AF0200BB1D1A80094B5B69BA1D1288134008D0064BBA1D12885A61BB1D1B8836
:205BA000180000F007F8C046BD4602B080BDC0460004014080B582B000AF0200BB1D1A8011
:205BC000C046BD4602B080BD80B584B000AF78600023FB607B68002B01D1012342E07B6856
:205BE0002122022199547B681B681B68FB60FB681E4A1340FB607B685A687B689B681A43AD
:205C00007B68DB681A437B681B691A437B685B691A437B689B691A437B68DB691343FA6816
:205C20001343FB607B681B68FA681A607B68180000F02EF97B6800229A627B680022DA621D
:205C40007B6800221A637B6800225A637B6800229A637B682122012199547B682022002183
:205C6000995400231800BD4604B080BD0FC0FFFF80B582B000AF78607B681B681A687B6882
:205C80001B680E218A431A607B681B681A687B681B6801218A431A607B681A6C7B68DB6BC2
:205CA000012191400A005A607B682122012199547B6820220021995400231800BD4602B0D5
:205CC00080BD80B584B000AF78600F217B1800221A707B6821229B5CDBB2022B06D07B6898
:205CE00004229A637B1801221A7028E07B681B681A687B681B680E218A431A607B681B680F
:205D00001A687B681B6801218A431A607B681A6C7B68DB6B012191400A005A607B682122C3
:205D2000012199547B682022002199547B685B6B002B04D07B685B6B7A68100098470F23CD
:205D4000FB181B781800BD4604B080BD80B584B000AF78607B68DB6B1B68FB607B681B6834
:205D60001B68BB607B681B6C04229A401300FA68134024D0BB680422134020D07B681B686D
:205D80001B682022134007D17B681B681A687B681B6804218A431A607B681A6C7B68DB6BC7
:205DA000042191400A005A607B68DB6A002B00D16AE07B68DB6A7A681000984764E07B689B
:205DC0001B6C02229A401300FA6813402BD0BB680222134027D07B681B681B68202213406C
:205DE0000BD17B681B681A687B681B680A218A431A607B682122012199547B681A6C7B6886
:205E0000DB6B022191400A005A607B682022002199547B689B6A002B36D07B689B6A7A686E
:205E20001000984730E07B681B6C08229A401300FA68134028D0BB680822134024D07B68BE
:205E40001B681A687B681B680E218A431A607B681A6C7B68DB6B012191400A005A607B6835
:205E600001229A637B682122012199547B682022002199547B681B6B002B05D07B681B6BC8
:205E80007A6810009847FFE7C046BD4604B080BD80B582B000AF78607B681B68084A9446D1
:205EA000634414211800FAF72FF903009A007B681A647B68034ADA63C046BD4602B080BD72
:205EC000F8FFFDBF0000024080B582B000AF0200FB1D1A70FB1D1B781A001F231A40044B63
:205EE000012191400A001A60C046BD4602B080BD00E100E090B583B000AF02003960FB1D98
:205F00001A70FB1D1B787F2B32D92F4AFB1D1B7819000F230B40083B9B0806339B00D31838
:205F200004331B68FA1D1278110003220A40D200FF2191400A00D2431A4011003B689B01FA
:205F4000FF221A40FB1D1B78180003230340DB009A401D48FB1D1B781C000F232340083BE1
:205F60009B080A4306339B00C31804331A6027E0164AFB1D1B785BB29B08C0339B009B588E
:205F8000FA1D1278110003220A40D200FF2191400A00D2431A4011003B689B01FF221A40D9
:205FA000FB1D1B78180003230340DB009A400748FB1D1B785BB29B080A43C0339B001A5011
:205FC000C046BD4603B090BD00ED00E000E100E080B584B000AFB9607A600F217B18021C3E
:205FE0001A70BA687B181B785BB211001800FFF781FFC046BD4604B080BD80B582B000AF13
:206000000200FB1D1A70FB1D1B785BB21800FFF75BFFC046BD4602B080BD000080B500AFE0
:20602000044B1A68034B802149000A431A60C046BD4680BD00700040F0B587B000AFF860B7
:20604000B9603A607B601723FB1801221A701623FB1800221A701523FB1800221A703E4B40
:206060001B7E012B01D1022372E03B4B01221A761723FE18394B180000F0C4F8030033709B
:206080001723FB181B78002B5CD1FB68012B04D11523FB1801221A700BE0FB68022B04D11C
:2060A0001523FB1802221A7003E01523FB1804221A701623FB1800221A7039E016217B182E
:2060C0001B785A00BB68D0187B181B781B011A00203A002A03DB7968D1400C0008E02022E2
:2060E000D21A796891400A003968D9400C0014437A68DA401500A3B2190000F067F81723D3
:20610000FE18164B180000F07DF803003370144B1A69134B01218A431A611723FB181B785B
:20612000002B0ED116217B181A787B1801321A701623FA181523FB1812781B789A42BDD38A
:2061400000E0C046044B00221A761723FB181B781800BD4607B0F0BD400B002050C300007B
:206160000020024080B582B000AFFB1D00221A700C4B1B69802213400DD00A4B0A4A5A60D3
:20618000084B0A4A5A60074B1B698022134002D0FB1D01221A70FB1D1B781800BD4602B0C4
:2061A00080BDC0460020024023016745AB89EFCD80B500AF044B1A69034B80210A431A610D
:2061C00000231800BD4680BD0020024080B582B000AF78600A00BB1C1A80084B0022DA61C9
:2061E000074B1A69064B01210A431A617B68BA1C12881A80C046BD4602B080BD400B00203F
:206200000020024080B584B000AF7860FFF7C6FA0300FB600FE07B6801330CD07B68002B28
:2062200007D0FFF7BBFA0200FB68D31A7A689A4201D203231FE0124BDB6801221340012B92
:20624000E9D00F4BDB6820221340202B02D10C4B2022DA600A4BDB6810221340102B05D035
:20626000074BDB6804221340042B03D100F00AF8012300E000231800BD4604B080BDC046E2
:206280000020024080B582B000AF00237B60134BDB6810221340102B09D1114BDB69022289
:2062A0001A430F4BDA617B68102213437B600B4BDB6804221340042B09D1094BDB690122D0
:2062C0001A43074BDA617B68042213437B60034B7A68DA60C046BD4602B080BD00200240D6
:2062E000400B0020B0B584B000AF786039600F23FB1801221A700023BB60324B1B7E012B08
:2063000001D102235AE02F4B01221A767B681B68012B16D12C4B1800FFF774FF031E47D175
:2063200000F056F80F23FC18274B1800FFF76AFF03002370254B1A69244B04218A431A618B
:2063400036E0214B1800FFF75DFF031E30D13B68012252421A607B685B68BB601FE0BB6878
:20636000180000F04DF80F257C19174B1800FFF749FF03002370154B1A69144B02218A4387
:206380001A617B191B78002B03D03B68BA681A600EE0BB688022120194466344BB607B68D9
:2063A0009B68DA027B685B68D318BA689A42D6D3044B00221A760F23FB181B781800BD46D2
:2063C00004B0B0BD400B002050C300000020024080B500AF084B0022DA61084B1A69074B00
:2063E00004210A431A61054B1A69044B40210A431A61C046BD4680BD400B00200020024052
:2064000080B582B000AF78600A4B0022DA610A4B1A69094B02210A431A61074B7A685A61D6
:20642000054B1A69044B40210A431A61C046BD4602B080BD400B00200020024080B500AF68
:206440001A4B1A68194B01210A431A60174B5A68164B17490A405A60144B1A68134B154982
:206460000A401A60114B1A68104B13490A401A600E4B5A680D4B11490A405A600B4BDA6A94
:206480000A4B0F218A43DA62084B1A6B074B0C490A401A63054B5A6B044B01218A435A6318
:2064A000024B00229A60C046BD4680BD001002400CB8FF08FFFFF6FEFFFFFBFFFFFFC0FF69
:2064C0002CFEFCFFFFBE7047C046FFBE7047C046FFBE7047C046FFBE7047C046FFBE70473B
:2064E000C046FFBE7047C046FFBE7047C046FFBE7047C046FFBE7047C046FFBE7047C04634
:20650000FFBE7047C046FFBE7047C046FFBE7047C046FFBE7047C046FFBE7047C046FFBE5C
:206520007047C046FFBE7047C046FFBE7047C046FFBE7047C046FFBE7047C046FFBE704742
:20654000C046FFBE7047C046FFBE7047C046FFBE7047C046FFBE7047C046FFBE7047C046D3
:20656000FFBE7047C04600000C4D0D4C03E02B682360043504340B4B9C42F8D10A4C02E050
:20658000002323600434094B9C42F9D1FFF756FF00F00EF8F9F7E6FFFEE7C0465869000857
:2065A000000000203404002038040020840B002070B50C4D0C4E761BB61005D0002408CD5B
:2065C00001349847A642FAD100F0B4F9074D084E761BB61005D0002408CD01349847A6428C
:2065E000FAD170BD4C6900084C6900084C69000854690008F0B5050083074AD0541E002ABD
:2066000044D003000322CEB202E00135013C3DD301332E701342F8D1032C2FD9FF220A40C7
:20662000150215432A0415430F2C35D92700103F3F093E01B4461E001A0010366644156088
:2066400055609560D5601032B242F8D10F260C2201373F012640DB193700224217D03E1F48
:20666000B608B400A4461A001C1D644420C2A242FCD103240136B6009B193C40002C05D0EB
:20668000C9B21C19197001339C42FBD1F0BD3400F4E714000300BFE72700E0E7034B10B569
:2066A000002B02D0024800F005F810BD00000000C566000810B5010000230022002000F08B
:2066C00019F810BD70B5074D074C641BA41005D0013CA300EB589847002CF9D100F030F9F7
:2066E00070BDC04654690008586900087047C0467047C046F0B5D6464F464646C0B5264F93
:2067000082B006003868924698468946FFF7EEFF224B1B680193A423019A5B00D558002D9E
:206720002ED06C681F2C30DC002E0FD1631C6B604B460234A40038686351FFF7D9FF00202B
:2067400002B01CBC90469946A246F0BD882251462800A300EB189950873AA2408930FF30E2
:206760000168114301608421404649005850022EDCD12B008D33FF3319680A431A60D5E7E1
:2067800015004D35FF35D550CBE73868FFF7B0FF01204042D4E7C0463004002030690008B9
:2067A0000A0D3D3D3D3D3D3D3D3D3D3D3D3D3D3D3D3D3D3D3D3D3D3D3D3D3D3D3D3D3D3D9C
:2067C0003D3D0A0D000000005541525420426F6F746C6F616465720A0D00000068747470EA
:2067E000733A2F2F6769746875622E636F6D2F666572656E632D6E656D6574680A0D000037
:206800003D3D3D3D3D3D3D3D3D3D3D3D3D3D3D3D3D3D3D3D3D3D3D3D3D3D3D3D3D3D3D3DD8
:206820000A0D0A0D000000004A756D70696E6720746F2075736572206170706C6963617400
:20684000696F6E2E2E2E0A0D00000000506C656173652073656E642061206E657720626957
:206860006E6172792066696C65207769746820586D6F64656D2070726F746F636F6C207412
:206880006F2075706461746520746865206669726D776172652E0A0D000000000A0D466105
:2068A000696C65642E2E2E20506C656173652074727920616761696E2E0A0D000A0D46698C
:2068C000726D776172652075706461746564210A0D0000004A756D70696E6720746F207579
:2068E000736572206170706C69636174696F6E2E2E2E0A0D000000000203040506070809CD
:206900000A0B0C0D0E0F10100102030405060708090A0B0C0D0E0F10000000000000000084
