:020000040800F2
:1080000078190020D1810008A1B8000875B30008D4
:108010000000000000000000000000000000000060
:108020000000000000000000000000002FBB00085E
:108030000000000000000000E9B8000831BB0008A3
:10804000E3810008E3810008E3810008E381000880
:10805000E3810008E381000829900008E38100081B
:10806000E3810008CD8F0008E3810008E381000868
:10807000E3810008ADBB0008E3810008E38100084C
:10808000E3810008E3810008E3810008E381000840
:10809000E381000891BB0008E3810008E381000848
:1080A000E3810008E3810008E3810008E5C20008DD
:1080B000E3810008E3810008E3810008E381000810
:1080C00000F002F800F059F80CA030C80838241865
:1080D0002D18A246671EAB4654465D46AC4201D100
:1080E00000F04BF87E460F3E0FCCB64601263342D9
:1080F00000D0FB1AA246AB46334318472C9F000022
:108100004C9F00000023002400250026103A01D3D4
:1081100078C1FBD8520700D330C100D50B6070473F
:1081200010B5642902D100F0D3F810BD752902D131
:1081300000F0CEF810BD782902D100F0FFF810BD94
:10814000732902D100F04CFC10BD002010BD1FB5FA
:108150000098019900F019FD00F0FAFC04000020DD
:10816000002109F0D3F9401C606000F05DFB1FBDE9
:1081700010B5002000F08BFC10BD00F090FD114602
:10818000FFF7E5FF08F096FF00F0C2FD03B4FFF72C
:10819000EFFF03BC00F03EFE70B505460C461646E8
:1081A00002E00FCC0FC5103E102EFAD2082E02D3DB
:1081B00003CC03C5083E042E07D301CC01C5361FEE
:1081C00003E021782970641C6D1C761EF9D270BD05
:1081D0000748804707480047FEE7FEE7FEE7FEE75F
:1081E000FEE7FEE704480549054A064B70470000D4
:1081F00035BB0008C18000087813002078190020E2
:1082000078150020781500200FB41CB5074B06AA7E
:108210007B4469460090059800F0B7FB0020694652
:1082200000F0C6FB1CBC08BC04B018479D0700004A
:1082300070B5044685690068C10601D5302600E0A6
:108240002026C00707D070BD62683046A1689047FD
:10825000206A401C20626D1EF6D570BD70B50446C4
:1082600085690078C00707D170BD6268A1682020C9
:108270009047206A401C20626D1EF6D570BD70B517
:108280000C460546012A05D02878800600D5EA6903
:10829000002302E0012305E05B1C934202D2E05C74
:1082A0000028F9D1A869E618C01AA861286AC01880
:1082B00028622846FFF7BCFF04E06A682078A968B6
:1082C000641C9047B442F8D32846FFF7C7FF70BD3F
:1082D000F7B5002575291068009914A611D0C0467D
:1082E000C046002802DA404211A608E00099096859
:1082F0008A0701D50FA602E0490704D50EA601257D
:1083000001E0C046C046009F0024243704E000F08E
:1083100003FC30313955641C0028F8D12B46324615
:108320002146009800F0D3FAFEBD000000000000D6
:108330002D0000002B0000002000000070B5044656
:108340000D4621461068C046C0462188090502D561
:108350000F4A7A4402E00E4A7A440E322346002144
:10836000243305E006070009360F965D5E54491C6C
:108370000028F7D120780023000705D5702D03D001
:10838000002901D002231132204600F0A0FA70BD6E
:10839000FB990000F3B50446002081B0206220461E
:1083A000E1688847002872D0252802D06268A16859
:1083B000ABE0594F00267F442046E16888472028DB
:1083C000054608DB312D06D27819203800780028C0
:1083D00001D00643F0E7B00701D504208643002012
:1083E000E0610746A0612A2D0AD0284608F018FE51
:1083F000002827D0B8000019303D0090856119E0B1
:108400000298BA00121902C8916102902046E168F0
:108410008847012F054617D1E06900281FDA202080
:1084200086431CE000980A2180694843009940195E
:10843000303888612046E1688847054608F0F0FD3D
:108440000028EFD1012F0AD02E2D08D12046E16857
:1084500088470546202006437F1C022FC3DBA06906
:10846000002803DA4042A06101200643F00701D052
:10847000102086436C2D0BD0682D09D04C2D3CD09C
:108480006A2D38D0742D38D07A2D36D016E040E0E1
:10849000E1682F4620468847B842054609D16C2F2F
:1084A00029D001208002E16806432046884705461E
:1084B00004E06C2F1DD0FF2001300643002D28D092
:1084C00028464138192803D80120C0020643203528
:1084D000204626602946029A1646FFF721FE00280C
:1084E00010D001280BD0F61DF008C0000830029013
:1084F00055E74020E1E78020D5E70020D3E7361D8F
:1085000002964CE762682846A1689047206A401CA2
:1085100044E7206AFEBD0000BF990000F7B50F4692
:1085200082B00026029C00F09DF900900068019046
:108530002578641C002D05D000F088F90068405DA6
:10854000C007F5D12B2D02D02D2D1CD0641E009814
:108550000021016039462046049A00F045FA002FB8
:10856000014604D03868A04201D1029838600098D2
:10857000006802280BD00098019A0260700506D5A9
:10858000484205B0F0BD012080020643DFE70846FF
:10859000F7E7F8B5074615460E46102000F066F9D5
:1085A000040009D06760A660E56000F057F9016833
:1085B000216004600020F8BD0120F8BD10B500F076
:1085C00087FA10BD0346F0B50B439B072DD1244D10
:1085D000EF01042A29D308C810C95E1B9E43121F4D
:1085E0003E4017D0D8B2E1B2401A3106014310D153
:1085F00098B2A1B2401A310401430AD118022102F3
:10860000000A090A401A3102014302D1180E210E54
:10861000401AF0BDA342DCD018BA21BA884201D971
:108620000120F0BD0020C043F0BD002A01D1002090
:10863000F0BD03780C78401C491C002B0DD0A342E0
:108640000BD1521E09D003780C78401C491C002B1A
:1086500003D0A34201D1521EEBD1181BF0BD000084
:108660000101010101E004C0091F0429FBD28B07AD
:1086700001D50280801CC90700D002707047002914
:108680000BD0C30702D00270401C491E022904D33C
:10869000830702D50280801C891EE3E70022EEE7F3
:1086A0000022DFE70378C2781946437812061B02DE
:1086B00019438378C0781B04194311430902090A3E
:1086C000000608437047002203098B422CD3030A9B
:1086D0008B4211D300239C464EE003460B433CD40F
:1086E000002243088B4231D303098B421CD3030A77
:1086F0008B4201D394463FE0C3098B4201D3CB01A7
:10870000C01A524183098B4201D38B01C01A5241D6
:1087100043098B4201D34B01C01A524103098B42DA
:1087200001D30B01C01A5241C3088B4201D3CB00C5
:10873000C01A524183088B4201D38B00C01A5241A8
:1087400043088B4201D34B00C01A5241411A00D258
:1087500001465241104670475DE0CA0F00D04942C1
:10876000031000D34042534000229C4603098B4231
:108770002DD3030A8B4212D3FC22890112BA030AB9
:108780008B420CD3890192118B4208D3890192113B
:108790008B4204D389013AD0921100E08909C309C0
:1087A0008B4201D3CB01C01A524183098B4201D3C2
:1087B0008B01C01A524143098B4201D34B01C01AAD
:1087C000524103098B4201D30B01C01A5241C30825
:1087D0008B4201D3CB00C01A524183088B4201D394
:1087E0008B00C01A5241D9D243088B4201D34B00AF
:1087F000C01A5241411A00D20146634652415B10F1
:10880000104601D34042002B00D5494270476346D1
:108810005B1000D3404201B50020C046C04602BDF7
:10882000704770477047000070B5064C7C44064D99
:108830007D4403E0206800198047241DAC42F9D133
:1088400070BD0000289900002899000010B500F0C4
:108850007FF9001D10BD00BFB58C000000487047B7
:108860004C130020004870471413002070B50646D2
:1088700000F06AF9056830460B30C408E400B442E1
:1088800001D8002070BD68682A46002818D0016809
:10889000A14211D30B46214608318B4208D34368CD
:1088A00001194B6003681B1B0B605160046001E001
:1088B00041685160001D70BD024640680028E6D145
:1088C0002146284600F04CF90028DCD170BDFFB5E8
:1088D00004460D4681B0243000902168880604D5F6
:1088E0001022E0699143216000E00120A84201DDEF
:1088F000471B00E000270498A1697A191018081A8C
:10890000A0612078C00602D42046FFF791FC002623
:1089100008E003986268A168805D9047206A401C67
:10892000761C206204988642F3DB2078C0060AD5C4
:108930002046FFF77DFC06E06268A1683020904782
:10894000206A401C206238467F1E0028F4DC07E0C5
:1089500000986268A168405D9047206A401C2062D0
:1089600028466D1E0028F3DC2046FFF777FC2078B0
:10897000000602D5022005B0F0BD0120FBE7000093
:1089800001694A1C02610878704700B58FB00291F6
:108990000021059105490193794403911146049002
:1089A0006846FFF7F7FC0FB000BD0000E5FFFFFFD2
:1089B0000A681070521C0A60704710B54369002B9A
:1089C00002D0C046C04601E0FFF759FC012010BDAF
:1089D0001278014624310A7000224A700122ECE725
:1089E00011680022D243E8E7F7B5154682B00027A8
:1089F000029C2078641C0197302802D0002D15D0ED
:108A000015E020780127641C782804D0582802D06B
:108A1000002D09D00BE0002D01D0102D07D12078BA
:108A200000271025641C02E0082500E00A25002626
:108A3000009610E000990127694308182946714300
:108A4000020C80B200908E183804864201D30120B7
:108A500001902078641C294600F0F1F80028E9DA3A
:108A60000398002805D0002F01D0641E00E0029C6E
:108A700004600198002806D0FFF7F4FE022101608F
:108A8000C81E05B0F0BD009930040843F9E7F8B5F9
:108A90000646FFF7E3FE0090054615E0002E02D0E3
:108AA000E068B0420FD1206828600098A16807688C
:108AB00060688847204600F09CF800980068B8423B
:108AC00002D00098E8E725462C68002CE6D1F8BDD6
:108AD000F8B515460E46040003D12C68002C00D1D1
:108AE0000CA4204600F0CBF80419207800280ED002
:108AF00027463146384600F0B1F80419207800289E
:108B000002D000202070641C38462C60F8BD00277D
:108B1000FAE700000000000001468008081A020978
:108B20001018020A1018020C1018C008820012183F
:108B30005200891A01E0401C0A390A29FBD2704709
:108B40000048704714130020004870471C13002091
:108B500000487047341300207047704770477047D3
:108B600038B504460A4600206946C046C04600287B
:108B700005D002462046009900F0B0F8012038BD2B
:108B800010B5012000F0CCF810BDF8B5C046C046C5
:108B9000054600200C461020C0460646A819A042F3
:108BA0000DD9324669460020C046C046070001D1B3
:108BB00000F0B6F80098A04200D00546C419FFF7AF
:108BC000C3FFF61D07460560F008C0004619284699
:108BD00000F008F8B44204D031463868A21B00F017
:108BE0007DF8F8BD00210160416080607047102071
:108BF000704770B50446051FFFF7A6FF0068002CFC
:108C00001AD0446801E020466468002C01D0AC42D0
:108C1000F9D301680A18AA4204D12A6805468918BE
:108C2000016000E0456028684119A14205D16168F2
:108C3000696021684018286070BD6C6070BD3A287A
:108C400000D23038202302469A43412A01D31046ED
:108C50003738884201D30020C043704730B50346FF
:108C60001D78002D03D00A4603E0AC4201D1181A4A
:108C700030BD1478521C002CF7D15B1CF0E730B5E6
:108C800003461D78002D08D00A461478521C002C8B
:108C900003D0AC42F9D15B1CF3E7181A30BD75461E
:108CA000FFF74EFFAE46050069465346C008C000B8
:108CB000854618B020B5FFF795FA60BC0027490833
:108CC000B6460026C0C5C0C5C0C5C0C5C0C5C0C564
:108CD000C0C5C0C5403D49008D46704710B503462C
:108CE000406801E003464068002801D08842F9D37B
:108CF0001868C3188B4206D0CB1CD808C000001DD2
:108D0000411A521A0146081D0A60FFF772FF10BD92
:108D100010B50446C046C0462046FFF737FA10BDDE
:108D200010B500F04FF800F046F810BD024670B5DF
:108D30000A4392072AD11E4DEE0104C808C9541BEC
:108D40009443344017D0D0B2D9B2401A210601431F
:108D500010D190B299B2401A210401430AD11002F5
:108D60001902000A090A401A2102014302D1100E19
:108D7000190E401A70BD9A42DFD010BA19BA884253
:108D800001D9012070BD0020C04370BD02780B786E
:108D9000401C491C002A09D09A4207D102780B785E
:108DA000401C491C002A01D09A42EFD0D01A70BD55
:108DB00001010101704710B5002801D000F02AF828
:108DC00010BD000010B5012805D0002103A000F05F
:108DD00027F8012010BD09A1F8E7000053494752C8
:108DE000544D454D3A204F7574206F66206865617B
:108DF00070206D656D6F7279000000003A20486543
:108E00006170206D656D6F727920636F727275701D
:108E10007465640001491820ABBEFEE7260002001D
:108E200070B505460C460A2000E06D1C00F012F8F3
:108E3000002D06D028780028F7D102E0641C00F04D
:108E400009F8002C02D020780028F7D10A2000F081
:108E500001F870BD08B5694608700320ABBE08BDB7
:108E600070B58C180578401C6B075B0F01D1037837
:108E7000401C2A1106D10278401C03E00678401CF1
:108E80000E70491C5B1EF9D12B0705D40023521E1E
:108E90000DD40B70491CFAE70378401CCB1A921CC6
:108EA00003E01D780D70491C5B1C521EF9D5A142D0
:108EB000D8D3002070BD10B50146406A426C5023E3
:108EC0001A420AD1416C01225202114341640168E5
:108ED000CA681205920F05D020E0C06B026B0846ED
:108EE000904710BD026A002A18D10A68120715D5EA
:108EF0008A6853070122002B09DB4B680C24A3432B
:108F00004B60416C130299431143416406E0416C8C
:108F1000202319434164816C1143816400F074F98A
:108F200010BD10B5406A416C402211434164816C10
:108F300004221143816400F074F910BD10B5406A39
:108F400000F06EF910BD0000F8B504460020009056
:108F5000206881688907890F012905D10168C9073F
:108F60002CD1C168090429D48168154A1026114002
:108F70000125002915D181682943816012481149D2
:108F80000068FFF7A0FB00E0401E00900028FBD126
:108F900000F0C0FC07460CE000F0BCFCC01B02283F
:108FA00007D9606C30436064A06C2843A064012042
:108FB000F8BD20680068C043C007EDD10020F8BDAF
:108FC0001700008040420F00D802002010B5024870
:108FD00000F01AFB10BD00004810002010B5044638
:108FE0000068054940181421FFF76DFB80002064DC
:108FF0000248E06310BD0000F8FFFDBF0000024022
:1090000030B5056C0124AC40C56B6C6004686360CE
:109010004368102B036803D099600068C26030BDBC
:109020009A600068C16030BD10B572B61E49FD225D
:109030000878104040084000C7221040FB2208304A
:109040001040BF2210404006400E0870002007F07C
:10905000EEFF0A2008F00CF81349012007F0E7FFA3
:10906000124CA0690078062813D0E1686068884235
:1090700014D26069001D606108F0ECF906E06169D6
:10908000E06808F0E7F96169091D61610028F6D11F
:1090900004E00122D102064800F035FC042000F073
:1090A00071FB62B610BD0000D1020020D004002088
:1090B0000004004810B5084C00228021204600F032
:1090C00022FC00224021204600F01DFC002220212D
:1090D000204600F018FC10BD00040048F8B500253B
:1090E0000446403400952278012A3BD001222270A8
:1090F00003689E68760776D43F4F4E68BE4254D0D0
:109100009E6A0F78BA4016439E620123826B1B074A
:109110009A421FD0012A1DD0022A1BD0032A19D03F
:10912000042A17D0052A15D0062A13D0072A11D0F1
:1091300002688B6856697607760FB3420AD0536986
:10914000DB08DB005361006842690B7A5B075B0F49
:109150001A4342610868102806D0112804D012284A
:1091600002D045E00220F8BD244A9368102809D0B7
:1091700011280AD0012000060343936008681028D4
:1091800006D035E00120C005F6E701208005F3E7B1
:109190001C481B490068FFF796FA0A21484300E083
:1091A000401E00900028FBD122E0986A0E78B24061
:1091B000904398620868102803D0112801D0122823
:1091C00016D10E498A68102807D0112808D001202E
:1091D000000682438A600BE005E00120C005F8E745
:1091E00001208005F5E7416C2022114341640125EF
:1091F000002020702846F8BD011000000027014023
:1092000040420F00D8020020044801680162416812
:10921000416281688162C168C16270479003002029
:1092200070477047F8B500250446002803D0606CED
:10923000002802D008E00120F8BD0020A0644021F1
:109240000855204600F0A8F8606C1022C0060028DF
:1092500070DB2068816849076CD4616C1301994305
:1092600002231943616481688907890F012905D1A7
:109270000168C9070FD1C16809040CD4C16818235B
:109280009943A3681943C160206801696368890034
:109290008908194301612068C1683D4B1940C160CC
:1092A000A069E1698003C9030843216A4B0318439D
:1092B000636B012B02D001231B0300E00023184342
:1092C000E36818432369022B09D000231843236B5A
:1092D000666A5B0018430123012E02D00AE00423D2
:1092E000F4E7002927D0616C202631436164A16C2A
:1092F0001943A164A16A0E46FF3EC23E02D0E66A4F
:10930000314308432168CE680643CE600126A16B35
:109310003607B14213D0012911D002290FD00329F9
:109320000DD004290BD0052909D0062907D007291B
:1093300005D010E028E0012109040843DAE721689C
:109340004E69F608F6004E6121684E69278F7F0747
:109350007F0F3E434E612168C9680E4E3140814205
:1093600007D10020A064606C80088000401C60640D
:1093700008E0606C0221884310436064A06C1843CD
:10938000A06401252846F8BD606C10436064F8E7CE
:109390001902FEFFE7FF3F83F0B587B005461421B1
:1093A0006846FFF77DF91A49286888422ED1194985
:1093B00088694E15304388618869304005904A6954
:1093C000B00202434A61496900270140059101202A
:1093D000009003200190694602970F4800F0DEF9E3
:1093E0000E480F4C81C427608020A6606060000199
:1093F000E0602020676120610948083C00F052F9D4
:10940000002801D0FFF756FEEC63656207B0F0BD9F
:1094100000240140001002400008004808000240FB
:1094200048100020F7B50446006800258068400712
:109430003DD426464036307801280AD001273770BF
:10944000E069012807D02046FFF77EFD050002D025
:109450002EE00220FEBD606C16490840FF2101315C
:10946000084360640020A0643070E16B1248886299
:10947000E16B1248C862E16B1148086321681C2047
:109480000860206841681022114341602068C1686B
:109490003943C1602168E06B4031029B019A00F0C2
:1094A0002DF92068816804221143816000E00225C3
:1094B0002846FEBDFEF1FFFFB78E00083D8F000875
:1094C000238F000800B50179002907D0C2688168A0
:1094D00000F010F8002809D0012000BD02680449FE
:1094E000516100688168182291438160002000BDAD
:1094F000B71DC10430B51F2301252C469C400C42EA
:1095000001D15B1EF9D2002A0FD0082A09D0102AF7
:1095100004D0182A09D1072B05D206E0082B02D265
:1095200003E0102B01D3012030BD036859610168AD
:1095300088681823984310438860002030BD10B518
:1095400004000DD0607F002803D12077204600F072
:1095500025F8022060772046FFF7B4FF002801D0ED
:10956000012010BD6079002814D0206921680861AD
:10957000216888686022904362691043886021688E
:10958000886880229043A269104388600120607738
:10959000002010BD0020C043E8E7000008B50068C7
:1095A0000549884207D10548426940210A43426182
:1095B00040690840009008BD0030024000100240A1
:1095C00070B50024014620314A78022A03D00421D4
:1095D0008163012416E0026813680E25AB43136013
:1095E000026813685B085B0013600122056C134678
:1095F000AB40C56B6B604A7000220A70416B00295A
:1096000000D08847204670BDF0B4C16B0D6801687A
:109610000C680422066C1346B3402B420DD063073E
:109620000BD50B689B0602D40B6893430B60016C4F
:109630008A40C16B4A60C16A19E00227B7400246FE
:109640002F4001232032002F15D0A70713D50C6817
:10965000A40604D40C680A25AC430C605370036C58
:1096600002219940C36B596000211170816A002961
:1096700016D0F0BC08470827B7402F4210D0240767
:109680000ED50C680E25AC430C60046C1946A14045
:10969000C46B61608363537000211170016BE6E756
:1096A000F0BC704770B5040024D002202146203160
:1096B0000D464870226811680F48A3680140606831
:1096C00026691843E3683343184363691843A36961
:1096D0001843E3691843084310602046FFF77EFCF7
:1096E0000020A062E06220636063A06301216970D2
:1096F000287070BD012070BD0FC0FFFFF8B5044693
:109700008C46203001780025012909D001260670F9
:1097100041780027012905D0077002252846F8BDA9
:109720000220F8BD02214170A76320680168490842
:109730004900016061462046FFF762FCE06A0028AC
:109740002068016802D00E22114306E00A2211436C
:10975000016020680168042291430160206801686B
:1097600031430160DAE731B500F0D4F8009C0546DA
:10977000601C00D0641C00F0CDF8401BA042FAD35E
:1097800038BD704710B504494A69024202D04861A9
:10979000FFF7F7FF10BD000000040140F8B50023FB
:1097A00093E0224601249C40A44622407ED04C688F
:1097B000022C01D0122C0CD1DC08A40027183C6A22
:1097C0005D07ED0E0F26AE40B4430E69AE40264352
:1097D0003E6205685E000324B4400F79A543BF07CD
:1097E000BF0FB7402F4307604D68012D05D0022DF4
:1097F00003D0112D01D0122D0ED18568CF68A5435D
:10980000B7402F43876047686546AF430D79ED0643
:10981000ED0F9D403D434560C568A5438C68B4404D
:109820002C43C4604C68E4004ED52B4CA56901263E
:109830003543A561A4699D0834400094274CAD00D0
:109840002F19BC689D072E0F0F25B540AC43092585
:10985000ED06A84201D1002514E0214DA84201D116
:1098600001250FE01F4DA84201D102250AE01E4D3F
:10987000A84201D1032505E01C4DA84201D10425D1
:1098800000E00525B5402543BD60194C25684E68AC
:109890009543F60300D51543256065684E689543EA
:1098A000B60300D515436560A56800E00CE04E687E
:1098B0009543F60200D51543A560E5684E689543CB
:1098C000B60200D51543E5605B1C0A681446DA4011
:1098D00000D066E7F8BD0000001002400000014023
:1098E0000004004800080048000C00480010004830
:1098F000000401400069084000D00120704742691F
:109900004A4042617047002A01D0816170478162FC
:10991000704700000148006870470000D402002032
:1099200002480168491C016070470000D402002011
:1099300010B506480168102211430160002000F0B4
:1099400007F800F041F8002010BD000000200240A0
:1099500000B5014687B000220D2000F053F80D201D
:1099600000F046F813488269C1140A438261806995
:109970000840059004A9684600F098F900F0B2F993
:109980000D49FEF7A0FE0E490C4A0A600D4A401E22
:10999000CA604860002008618860084601F0FEF84F
:1099A000002802D0012007B000BD054801F050F9A1
:1099B000F9E700000010024040420F00002C014077
:1099C000D4120020E703000008B50848816901228D
:1099D00011438161816911400091C26901040A4308
:1099E000C261C0690840009008BD0000001002403C
:1099F000C106C90E01208840014908607047000077
:109A000000E100E010B501F04DFF10BDBFF34F8F36
:109A100004490348C860BFF34F8F00BFFDE7000053
:109A20000400FA0500ED00E00248016882151143C8
:109A30000160704700700040F8B504460068434D6F
:109A4000C00352D5E8690026C00007D4E96928049C
:109A50000143E961E9690140012600913C48016840
:109A6000C90510D40168821511430160FFF752FF48
:109A7000074604E0FFF74EFFC01B642824D8344893
:109A80000068C005F6D5286A03273F02384020D079
:109A90006168394081421CD0286A2A6AB843012192
:109AA00009040A432A622A6A8A432A622862C00792
:109AB0000FD0FFF72FFF009008E0FFF72BFF009972
:109AC000411A2448814201D90320F8BD286A800741
:109AD000F3D5286A6168B84308432862002E04D091
:109AE000E869012109078843E8612078C00705D0AB
:109AF000286BA168800880000843286320788007CD
:109B000006D5286B032109048843E16808432863CC
:109B10002078800605D5286B1021884321690843E9
:109B200028632068800305D5286B80218843A169BC
:109B3000084328632088400505D5286B40218843C9
:109B40006169084328630020F8BD0000001002404E
:109B50000070004088130000F8B505464E480E46D8
:109B60000068C007C00FB0420AD24B4801684908DC
:109B70004900314301600068C007C00FB04270D196
:109B80002878464C800705D56068F0218843A9688D
:109B9000084360602878C00753D06868012817D050
:109BA000022818D0032819D021688907002958DA1B
:109BB00061688908890001436160FFF7ABFE69684D
:109BC0000746012913D002291DD0032927D034E0EC
:109BD00021688903EAE721688901E7E7616BC90326
:109BE000E4E7FFF797FEC11B2D48814223D8606848
:109BF0000007800F0128F4D123E0FFF78BFEC11B83
:109C00002748814217D860680007800F0228F4D1E6
:109C100017E0FFF77FFEC11B214881420BD8606827
:109C20000007800F0328F4D10BE0FFF773FEC11B80
:109C30001B48814201D90320F8BD60680007800FEE
:109C4000F3D115480168C907C90FB1420BD90168A2
:109C500049084900314301600068C007C00FB042A5
:109C600001D00120F8BD2878400706D5606807219B
:109C700009028843E9680843606000F043F86168BE
:109C8000084A0906090F515CC840074908600020CE
:109C9000FFF75EFE0020F8BD0020024000100240E9
:109CA00088130000391D0108D802002010B50722D2
:109CB00002600A4A53689B079B0F43605368F02475
:109CC00023408360526807231B021A40C260044885
:109CD0000068C007C00F086010BD000000100240FF
:109CE000002002400448054900684968044A4905C3
:109CF000490F515CC8407047D80200200010024054
:109D0000491D010830B516A30FCB89B06C460FC4AE
:109D100017A30FCB0FC41A494A680C2014460440FD
:109D20001848042C05D0184B082C04D00C2C00D15A
:109D3000184609B030BD9402240F6D462C5DC96AE7
:109D400004AD0907090FD203695C920F022A02D001
:109D5000032A00D11846FEF7B6FC6043E9E700008D
:109D600002030405060708090A0B0C0D0E0F10105C
:109D70000102030405060708090A0B0C0D0E0F105B
:109D80000010024000127A00006CDC0270B586B050
:109D9000022001900320039000200D46FF21013195
:109DA0000D4C029000910490616916460120400418
:109DB0000143616161690140059109206946C0065E
:109DC000FFF7ECFC60687F21090688433543284390
:109DD000606006B070BD000000100240FEB5044691
:109DE0000078F04EF04DC00748D068680007800F3B
:109DF00001281FD068680007800F022804D1686816
:109E0000C003800F022815D06168012919D00120F4
:109E10008004002901D0052917D02968B1432960A1
:109E2000296881432960606800281BD0FFF772FD14
:109E3000074613E02868800320D56068002876D0A4
:109E40001CE0286830432860EDE729680143296059
:109E5000F7E7FFF75FFDC01B642869D82868800317
:109E6000F7D50BE0FFF756FD074604E0FFF752FD7C
:109E7000C01B6428F1D828688003F7D420788007B5
:109E80003ED568680007800F14D068680007800F0F
:109E9000022804D16868C003800F01280AD0E06856
:109EA000002828681DD0012108432860FFF732FDF3
:109EB00007460BE0286880070BD5E068012836D1FB
:109EC00007E0FFF727FDC01B0228C6D828688007D7
:109ED000F7D52868F82188432169C900084328601C
:109EE0000EE0400840002860FFF714FD074604E03C
:109EF000FFF710FDC01B0228AFD828688007F7D4F1
:109F00002078000724D5E0690028686A11D0012173
:109F100008436862FFF7FEFC074604E0FFF7FAFC1F
:109F2000C01B022899D8686A8007F7D510E036E18F
:109F3000D1E0400840006862FFF7ECFC074604E00F
:109F4000FFF7E8FCC01B022887D8686A8007F7D4AF
:109F5000207804274007002861DA00200190E86992
:109F6000C00008D4E969B8060143E961E969014024
:109F70000120009101908D480168C90511D4016844
:109F8000821511430160FFF7C5FC009005E0FFF763
:109F9000C1FC0099401A642897D884480068C0051D
:109FA000F5D5A06801280AD0002801D0052811D0D5
:109FB000286A400840002862286AB84302E0286AFC
:109FC000012108432862A068002812D0FFF7A2FCF4
:109FD00000900AE0286A38432862F0E7FFF79AFC0D
:109FE0000099411A7248814275D8286A8007F5D5D0
:109FF0000DE0FFF78FFC009006E0FFF78BFC009967
:10A00000411A6B48814266D8286A8007F5D40198C6
:10A01000002804D0E969012000078143E961207824
:10A02000C00635D5606901280CD0401D686B24D06E
:10A0300038436863686B400840006863FFF76AFC58
:10A04000074622E0686B38436863686B0121084368
:10A050006863FFF75FFC074604E0FFF75BFCC01B8B
:10A06000022838D8686B8007F7D5686BF8218843D9
:10A07000A169C900084368630AE0B8436863F4E76C
:10A08000FFF748FCC01B022825D8686B8007F7D46F
:10A090002078800637D568680007800F032813D022
:10A0A00068680007800F022804D16868C003800F29
:10A0B000032809D0206A0028686B16D030436863F3
:10A0C000FFF728FC06460CE0686BC0031BD5206A2E
:10A0D000012864D117E05BE0FFF71CFC801B02281D
:10A0E00056D8686BC003F7D50DE0B0436863FFF73F
:10A0F00011FC064604E0FFF70DFC801B022847D840
:10A10000686BC003F7D4606A002846D06968090705
:10A11000890F022943D0012636060228286805D077
:10A12000B0432860FFF7F6FB044633E0B0432860F5
:10A13000FFF7F0FB074604E0FFF7ECFBC01B02282B
:10A1400026D828688001F7D4E86A216B000900014D
:10A150000843E862A16AE06A084369687B22D20387
:10A16000914308436860286830432860FFF7D2FBBA
:10A17000044604E0FFF7CEFB001B022808D828683D
:10A180008001F7D509E0FFF7C5FB001B022801D9C4
:10A190000320FEBD28688001F5D40020FEBD01200B
:10A1A000FEBD0000000001000010024000700040F1
:10A1B0008813000030B5027F012A1CD001230377E9
:10A1C000022242770468A2680C4D2A400A43CA2141
:10A1D000616204685321616201688A6001688A686B
:10A1E000DC0222438A600268FF215162437700212A
:10A1F0000177084630BD022030BD0000F7F7FFFFB1
:10A2000070B5040003D0607F002802D006E0012072
:10A2100070BD00202077204600F04CF802206077C7
:10A220002168CA204862216853204862204601F014
:10A230006FFBFF250426002824D1206881681C4A72
:10A2400011408160216888686268636910432269EF
:10A250001A43104388602168E0680861206801693A
:10A2600022891204114301612068C1688022914350
:10A27000C16020688068800608D4204600F000F99C
:10A28000002803D0206845626677C0E72068016C2B
:10A2900001229204914301642068016CA269114378
:10A2A00001642068456201206077002070BD0000D5
:10A2B000BFFF8FFF00680549884205D10448016A45
:10A2C0000122D203114301627047000000280040C0
:10A2D00000100240F8B50446007F0B46012815D057
:10A2E00001202077022060775878002A10D001F0F2
:10A2F000FCFA987801F0F9FAD8789D7800040543C3
:10A300005878197800024903084316E00220F8BD86
:10A31000C10603D5EF2108400A305870D87801F003
:10A32000ECFA0504587801F0E8FA00020543987841
:10A3300001F0E3FA05431878400305432168CA2079
:10A340004862216853204862204601F0E1FA002665
:10A35000FF27002811D1104805402068456020687B
:10A36000C16880229143C1602068806880060BD458
:10A37000204600F085F8002806D0206847620420B7
:10A38000607726770120F8BD20684762012060775A
:10A3900026770020F8BD00003FFFFF00F8B5044617
:10A3A000007F0D4601280ED0012020770220607723
:10A3B000206800278068002A07D0400618D5287832
:10A3C00001F093FA15E00220F8BD400600D4EF70CA
:10A3D000287801F092FA0604687801F08EFA0002FB
:10A3E0000643A87801F089FA0643E878000409E0FA
:10A3F000EF702878AE78000406436878E9780002A8
:10A400000904084306432168CA2048622168532092
:10A410004862204601F07CFA00281ED11748064009
:10A42000206806602068816801229204914381605F
:10A430002969E868084321688A68104388602068B1
:10A44000C16880229143C1602068806880060CD476
:10A45000204600F015F8002807D02168FF20486248
:10A460000420607727770120F8BD2168FF2048622B
:10A470000120607727770020F8BD00007F7F7F00F4
:10A4800070B504460068C168A0229143C160FFF71F
:10A4900041FA7D260546F60006E0FFF73BFA401B31
:10A4A000B04201D9032070BD2068C0688006F4D591
:10A4B000002070BDF8B5040007D0002625464035C1
:10A4C000A662687F002802D005E00120F8BD2E7743
:10A4D000204600F04BF802236B7720680168402289
:10A4E000914301600721E0680902884201D90022F6
:10A4F00001E0012212030F273F02B84202D0884236
:10A5000000D0A662276B002F05D1884201D92363B2
:10A5100001E001202063A168606863690843216944
:10A52000194308430123A1695B0219400843E1690B
:10A530000843216A0843A16A084321680860616BE7
:10A54000606AA36908431B0C0427E1683B40194378
:10A5500008432168104348602068C1697A0291432A
:10A56000C1612666012068770020F8BDF0B587B08C
:10A57000044614216846FEF793F81749206888427C
:10A5800028D11648826981140A43826182690A408F
:10A590000592426949010A4342614069002408402A
:10A5A00005902020092702250326FF06009002942B
:10A5B00069460396019504943846FFF7EFF8C020EA
:10A5C0000090012002900195694603960494384654
:10A5D000FFF7E4F807B0F0BD003001400010024082
:10A5E000FFB504460E464068FF2125460027053189
:10A5F000403581B0884202D1A06800280CD0287F65
:10A60000012815D001202877FFF784F90090687F92
:10A6100001280FD0022789E0042068770498009071
:10A62000324611462046039B00F03EF905B0F0BDCE
:10A630000220FBE7002E78D00398002875D0042074
:10A6400068770020206626640399A9800399E98031
:10A65000A063A087E087E064206507200121E2680D
:10A660000002090382422268536801D98B4300E04B
:10A670000B4353600122A168D203914205D12168A6
:10A680000A6801239B039A430A6021680A685206FC
:10A6900003D40A6840231A430A60E168814218D94A
:10A6A00034E020688168C90706D0007B3070E888F4
:10A6B000401EE880761C0CE00498002824D0401C42
:10A6C00007D0FFF727F901460098091A049881423C
:10A6D0001AD2E8880028E4D11BE020688168C90705
:10A6E00006D0C0683080E888401EE880B61C0DE0C7
:10A6F0000498002808D0401C08D0FFF70BF90099F7
:10A70000411A0498814201D303270FE0E88800280A
:10A71000E3D12046009A049901F016F9002801D0EF
:10A7200020202066206E002800D0012701206877B5
:10A7300000202877384679E7FFB5064604464036BC
:10A74000307F002781B00D46012809D001203077E5
:10A75000FFF7E0F80090707F012804D002279DE009
:10A76000022005B0F0BD002D72D0039800286FD0F4
:10A770000320707700202066A5630399A1870399C1
:10A78000E1872064B080F0802065E0640121A0684A
:10A79000C903884205D12068016801229203114350
:10A7A000016020680168490603D401684022114312
:10A7B00001600720E16800028142606823D9002817
:10A7C00002D0E08F01281AD121682888C86005E0EE
:10A7D00020688168890706D52988C160E08F401EFE
:10A7E000E087AD1C0BE0049800283ED0401C06D04A
:10A7F000FFF790F80099411A0498814235D2E08F12
:10A800000028E5D136E0002802D0E08F01282ED1C3
:10A81000E08F012803D921682888C8600CE02168EE
:10A82000287808730FE020688168890711D5E18FC7
:10A83000012906D92988C160E08F801EE087AD1C00
:10A8400015E029780173E08F401EE0876D1C0EE053
:10A8500023E00498002808D0401C08D0FFF75AF8DD
:10A860000099411A0498814201D3032716E0E08F32
:10A870000028D8D12046009A049901F0A1F80028B8
:10A8800001D020202066A068002803D12068C1687C
:10A8900080680090206E002800D00127012070778A
:10A8A0000020307738465CE7FFB5044683B00120CE
:10A8B000254640350090287F00270E4601280FD0FE
:10A8C00001202877FFF726F80190687F616801284A
:10A8D0000DD0CA1FFD3A08D1A168002905D102E0B8
:10A8E000022007B0F0BD042801D00227FAE0002EB4
:10A8F0007CD005980028FBD006980028F8D0687F07
:10A90000042801D00520687700202066059921647D
:10A910000699E9800699A980A6630699E1870699B8
:10A92000A187E06420650723E1681B02994202D8F1
:10A93000E888012806D920684268012109038A4372
:10A94000426005E020684168012212031143416022
:10A9500020680168490603D4016840221143016060
:10A96000E1686068994242D9002802D0E08F01284E
:10A9700035D121683088C860E08F401EE087B61C62
:10A980002DE0009800280ED0E08F00280BD0206822
:10A990008168890707D53188C160E08F401EE08754
:10A9A0000020B61C0090E88800280ED0206881683E
:10A9B000C9070AD0C068059908800598801C0590D1
:10A9C000E888401EE880012000900C98401C06D0CA
:10A9D000FEF7A0FF0199411A0C9881426DD2E08FD9
:10A9E0000028CED1E8880028CBD16EE079E000289D
:10A9F00002D0E08F012862D1E08F012807D92168B9
:10AA00003088C860E08F801EE087B61C57E0216860
:10AA100030780873E08F401EE087761C4FE0009886
:10AA2000002818D0E08F002815D020688168890799
:10AA300011D5E18F012906D93188C160E08F801ED0
:10AA4000E087B61C05E031780173E08F401EE08797
:10AA5000761C00200090E888002824D020688168B7
:10AA6000C90720D0E988012912D9C0680599088052
:10AA70000598801C0590E888801EE880E8880128F9
:10AA80000FD820684168012212031143416008E099
:10AA9000017B059801700598401C0590E888401ED0
:10AAA000E880012000900C98401C08D0FEF732FF8F
:10AAB0000199401A0C99884201D3032712E0E08FD4
:10AAC0000028ACD1E8880028A9D12046019A0C9929
:10AAD00000F076FF002801D020202066206E00289C
:10AAE00000D0012701206877002028773846F8E653
:10AAF0007047704770B5034620331A7F012A27D06C
:10AB000001241C7702225A770326CA683602B24310
:10AB10008E6800253243A602B2434E680068324375
:10AB2000E602B2430E6832432603B2430E69324353
:10AB30006603B2434E6989693243A603B2430A43AE
:10AB4000E603B2430A4342645C771D77002070BD80
:10AB5000022070BD70B502462032137F012B1BD03E
:10AB60000123137702245477046865687026B5437F
:10AB70006560046865680E68354365600468A568AB
:10AB80008026B543A5600068846849680C438460EA
:10AB900053770020107770BD022070BD70B504009F
:10ABA00005D025462035687F002802D006E0012028
:10ABB00070BD00202877204600F00AF80220687750
:10ABC000211D206800F0FAFF01206877002070BD89
:10ABD00008B50122016892071448914206D1C16963
:10ABE00001221143C161C069104008E0104A91423E
:10ABF00007D1C26902210A43C261C06908400090BE
:10AC000008BD0C4A9142FBD18269012149040A43E3
:10AC10008261806900220840009011461520FEF7ED
:10AC2000F1FE1520FEF7E4FE08BD00000010024012
:10AC300000040040004401400222014620314A77CE
:10AC400002681368012003431360487700207047AF
:10AC50000268D36801210B43D360006802680A438D
:10AC6000026000207047F8B5054604462035287F6D
:10AC7000012817D001272F77022068772268906873
:10AC80007726FF23B0431B02984390600868502842
:10AC900037D00EDC202857D006DC00284ED01028F4
:10ACA00040D14EE00220F8BD302850D0402839D1A4
:10ACB0003CE060282DD0702817D001221203801AA2
:10ACC0000ED090422ED1CB684A688968206800F087
:10ACD000BFFF20688168012292031143816021E057
:10ACE00020688168C908C900F8E7CB684A688968A4
:10ACF000206800F0ADFF21688868B0433043886069
:10AD000010E0CA684968206801F0B2F85021206854
:10AD100006E0CA684968206801F0BBF86021206835
:10AD200000F0A1FF6F7700202877F8BDCA68496856
:10AD3000206801F09DF840212068F1E7002120689B
:10AD4000EEE710212068EBE720212068E8E73021BA
:10AD50002068E5E7704770B5044600680169002582
:10AD6000C9438907002915DBC168C943890711D484
:10AD7000E91E016101202077206880698007204654
:10AD800002D0FFF7E7FF04E000F0BEF8204600F035
:10AD9000D7F8257720680169C943490717D4C168E6
:10ADA000C943490713D40421C94301610220207714
:10ADB000206880698005800F204602D0FFF7CAFF17
:10ADC00004E000F0A1F8204600F0BAF825772068EA
:10ADD0000169C943090716D4C168C943090712D4D8
:10ADE0000821C9430161042020772068C0698007D9
:10ADF000204602D0FFF7AEFF04E000F085F82046C1
:10AE000000F09EF8257720680169C943C90617D468
:10AE1000C168C943C90613D41021C9430161082080
:10AE200020772068C0698005800F204602D0FFF798
:10AE300091FF04E000F068F8204600F081F82577E3
:10AE400020680169C943C90708D1C168C943C90756
:10AE500004D1891E0161204600F074F82068016960
:10AE6000C943090609D4C168C943090605D480212C
:10AE7000C94301612046FFF73BFE20680169C943D1
:10AE8000490609D4C168C943490605D44021C943CC
:10AE90000161204600F060F820680169C943890615
:10AEA00009D4C168C943890605D42021C943016179
:10AEB0002046FFF71EFE70BD70B504462034237F88
:10AEC000012B0CD00125257702236377002A08D0B7
:10AED000042A0AD0082A0CD00C2A11D10DE0022035
:10AEE00070BD006800F0C8FE0AE0006800F008FFCE
:10AEF00006E0006800F044FF02E0006800F082FF16
:10AF000065770020207770BD704770B5040005D0CC
:10AF100025462035687F002802D006E0012070BD5C
:10AF200000202877204600F00AF802206877211DCB
:10AF3000206800F043FE01206877002070BD704754
:10AF40007047000010B500680249884201D1FEF741
:10AF5000E7FC10BD002C01407047704770470000AF
:10AF6000F8B503680446D869196805072D0F07D19D
:10AF7000820605D58A0603D5204601F063F8F8BDA0
:10AF80009A68002D64D0D507ED0FFF2621360E40BC
:10AF90002E435DD0C60706D0CE0504D501261E621D
:10AFA000E36E3343E366870702230426002F06DAA5
:10AFB000D70704D027683B62E76E3743E766470749
:10AFC00006D5D20704D022681662E26E1A43E26602
:10AFD000020709D520220A402A4305D02368082207
:10AFE0001A62E36E1343E366E26E002AC7D080065E
:10AFF00004D5880602D5204601F024F8E06E00074B
:10B0000003D42068806840061CD5204600F0FEFF6F
:10B0100020688168490611D581684022914381608A
:10B02000606E00280AD01A494163606EFEF7C8FAC4
:10B030000028A4D0606E416B8847F8BD2046FFF71A
:10B040008DFFF8BD2046FFF789FF0020E066F8BDC0
:10B05000C5020DD552020BD5012000051862202132
:10B0600020466030417281722046FFF776FFF8BDBE
:10B07000020605D50A0603D5204601F0CFF8F8BD33
:10B080004006FCD54806FAD5204600F0CEFFF8BDB4
:10B09000F9BF000870B5040005D025466035687A10
:10B0A000002802D006E0012070BD00202872204652
:10B0B00000F026F8242068722068016849084900D9
:10B0C0000160204600F0FCFF0128EDD0606A0028F6
:10B0D00002D0204600F0F0FE206841680922D2022A
:10B0E00091434160206881682A22914381602068F1
:10B0F0000168012211430160204600F043FF70BD4A
:10B10000F0B587B0044614216846FDF7C9FA234F0D
:10B110000121266800222248490402230324012534
:10B12000BE4220D18769CE10374387618769374097
:10B13000059746690E4346614069019308400590B2
:10B140006002009002AE34C609206946C006FEF7D0
:10B1500025FB002203211B20FEF754FC1B20FEF7D9
:10B1600047FC07B0F0BD0F4FBE42FAD1C6690E438F
:10B17000C661C6690E40059646690E434661406940
:10B180000193084005900C20009002AE34C60920BF
:10B190006946C006FEF702FBE3E700000038014005
:10B1A0000010024000440040FFB5074604466037E7
:10B1B000B87A83B00E46202871D1002E0CD00598A5
:10B1C000002809D00120A1680003814207D120692D
:10B1D000002804D1F00702D0012007B0F0BD387A72
:10B1E00001285CD0012038720020E0662220B8726D
:10B1F000FEF790FB02902546403505982883059878
:10B2000068830122A0681203FF21904204D12069C3
:10B21000002815D123480AE07F2200280BD0012105
:10B220000907884204D12069002807D03F20A8835D
:10B23000A88B019023E02069002801D0AA83F7E7BA
:10B24000A983F5E7688B401E68830698009000226A
:10B2500020212046029B01F014F8002801D0032091
:10B26000BBE70120A1680003814202D120690028C8
:10B270000DD02068818C019801403170761C688B5C
:10B280000028DFD12020B87200203872A5E720689E
:10B29000808C019908403080B61CF0E7FFE702205F
:10B2A0009BE70000FF0100007047FFB5064604461B
:10B2B0006036707A83B00D46202858D1002D0CD00E
:10B2C0000598002809D00120A1680003814207D118
:10B2D0002069002804D1E80702D0012007B0F0BDA2
:10B2E000307A012843D0012030720020E06621200E
:10B2F0007072FEF70FFB01902746403705983882A1
:10B300000598788218E0788A401E78820698009026
:10B31000002280212046019B00F0B3FF002818D1B5
:10B320000120A1680003814202D12069002812D0C7
:10B330002168287808856D1C788A0028E3D1069852
:10B340000090002240212046019B00F09AFF002837
:10B3500008D00320C2E728882168C005C00D0885F1
:10B36000AD1CE9E72020707200203072B6E70220A1
:10B37000B4E77047FEE700000EB5002126480091B3
:10B38000019102910823234A8360026041600122F7
:10B390000C300EC001604160C160FF238260C23387
:10B3A000416103618261C1611838FDF73BFF0028EC
:10B3B00001D0FDF77FFE0A200090012000030190DC
:10B3C0000720029069461448FDF788FE002801D046
:10B3D000FDF770FE1020009069460F48FDF77EFED5
:10B3E000002801D0FDF766FE1120009069460A484A
:10B3F000FDF774FE002801D0FDF75CFE12200090DE
:10B4000069460548FDF76AFE002801D0FDF752FEA7
:10B410000EBD000000240140FC0F002010B50948BB
:10B420000749016000210171417141618161012180
:10B430000162FEF784F8002801D0FDF73BFE10BD45
:10B44000003002408C10002008B5084841690122F4
:10B4500011434161406910400022009011460920CB
:10B46000FEF7D0FA0920FEF7C3FA08BD001002402B
:10B47000F0B587B014216846FDF712F950484169CC
:10B480000120C0044E4A01435161516901400591B8
:10B490005169C000014351615169014005915169F1
:10B4A00040110143516151690140104605914169C4
:10B4B00001208004014351615169014005915169A6
:10B4C0008000014351615169FD260140B60005919C
:10B4D000002231463B48FEF716FA3B4F0920002276
:10B4E0003946C006FEF70FFA002238493848FEF701
:10B4F0000AFA002204213748FEF705FA36480024EC
:10B5000001256A4631C269462E48FEF747F9029482
:10B5100069462C48009601950394FEF73FF90820F0
:10B5200002266A4651C269462648FEF737F90920C5
:10B5300001946946C00600960294FEF72FF909208F
:10B5400002946946C006009701950394FEF726F918
:10B550001E48009002946946019503941C48FEF72A
:10B560001DF91E4804270190694600970296184865
:10B57000FEF714F92802009009200294039469460A
:10B5800001960494C006FEF709F9E8036A4631C241
:10B5900009206946C006FEF701F9029469460D4884
:10B5A000009701950394FEF7F9F800221146062052
:10B5B000FEF728FA0620FEF71BFA07B0F0BD0000E0
:10B5C000001002400008004810180000FBFF0000B7
:10B5D00000040048000C0048021C0000000021107C
:10B5E00010B586B014216846FDF75AF800241D49AD
:10B5F0001D48059412C07F2101608460C460FF2152
:10B60000046141600838FEF7FBFD002801D0FDF71A
:10B6100051FD6846047044708470039401226946A9
:10B6200011480494FEF7BAFE002801D0FDF742FD50
:10B6300001206946087548758875CC75024605A9CC
:10B640000948FEF747FE002801D0FDF733FD002230
:10B6500011460548FEF7AEFD002801D0FDF72AFD92
:10B6600006B010BD00280040B010002010B51148F1
:10B670000F490160FF2105314160002107228160EF
:10B6800012020161C26001224161520282610162C3
:10B6900038224162C261816207220163C262416352
:10B6A000FEF708FF002801D0FDF704FD10BD0000E3
:10B6B00000300140D010002010B58EB01C2168462B
:10B6C000FCF7EEFF1C2107A8FCF7EAFF20481F4902
:10B6D00001607D2100244901846041600A210461E8
:10B6E000C1600521416180218161FFF757FA00287F
:10B6F00001D0FDF7DFFC1648FFF707FC002801D05A
:10B70000FDF7D8FC10200594019400900294039456
:10B7100004940022694606940D48FFF7CDFB0028EB
:10B7200001D0FDF7C7FC01200794400308940C905A
:10B7300009940A940B9407A90D940548FFF7DAF9C8
:10B74000002801D0FDF7B6FC0EB010BD004401404A
:10B75000B411002010B586B00024009401211648D1
:10B7600001940294039404948907059401603021A4
:10B7700084604160046111498461C160FFF70EFA81
:10B78000002801D0FDF796FC0120000300906946D7
:10B790000948FFF768FA002801D0FDF78BFC0494F4
:10B7A00004A905480594FFF7D5F9002801D0FDF755
:10B7B00081FC06B010BD00003411002040420F0093
:10B7C00010B586B0002400941748019402940394A5
:10B7D00004941449059401601449846041607D21FA
:10B7E0000461C9008461C160FFF7D8F9002801D065
:10B7F000FDF760FC01200003009069460A48FFF74E
:10B8000032FA002801D0FDF755FC049404A906483B
:10B810000594FFF79FF9002801D0FDF74BFC06B017
:10B8200010BD0000000400407411002080BB000027
:10B8300010B50C480A490160E1214902416000212C
:10B840008160C16001618161C1610C22016242615C
:10B850004162FFF71FFC002801D0FDF72BFC10BD53
:10B8600000380140F411002010B50C480A4901606D
:10B87000E1214902416000218160C1600161816173
:10B88000C1610C22016242614162FFF703FC0028A2
:10B8900001D0FDF70FFC10BD0044004064120020F1
:10B8A000704700008307FF22DB0E9A408907090ECC
:10B8B000994000280BDA0007000F08388308084871
:10B8C0009B001818C36993430B43C36170478308F7
:10B8D00004489B001B181868904308431860704781
:10B8E00000ED00E000E400E0704701090A220007D3
:10B8F0005143000F4018C0B27047002102E00A38DF
:10B90000C0B2491C0A28FAD20907090E0843704739
:10B9100070B504460068C168490613D40021C943C4
:10B92000C160FDF7F7FF7D260546F60006E0FDF74E
:10B93000F1FF401BB04201D9032070BD2068C068F0
:10B940004006F4D5002070BDF7B504464068FF26D8
:10B95000053682B01546B0420CD10121A068C9035A
:10B96000884202D04911884204D1206801684022EF
:10B97000914301600095002280212046039B00F046
:10B9800090F82027002813D16068B04216D1A06833
:10B99000B902884202D0491188420FD10321009593
:10B9A000002249022046039B00F030F8002805D011
:10B9B000206E38432066032005B0F0BD0020FBE771
:10B9C000F8B50F460B4615460092032104460022A7
:10B9D000C90200F01BF82026002812D13B460022A5
:10B9E00080212046009500F05CF8002809D1032151
:10B9F0003B46002249022046009500F007F8002847
:10BA000003D0206E304320660320F8BDF8B51D46F4
:10BA100017460E4604463DE0032149028E4205D1F9
:10BA2000002F03D1017B684601700078681C31D07B
:10BA3000002D05D0FDF76EFF0699401AA84229D3C4
:10BA400020684168E022914341606068C11FFD3970
:10BA50000CD10121A068C903884202D04911884253
:10BA600004D1206801684022914301600120A16A4D
:10BA70004003814207D121680A6882430A60216835
:10BA80000A6802430A600120403460770020207772
:10BA90000320F8BD206881683140B942BCD1002044
:10BAA000F8BDF8B51D4617460E46044633E0681C3F
:10BAB00031D0002D05D0FDF72DFF0699401AA84280
:10BAC00029D320684168E022914341606068C11F2A
:10BAD000FD390CD10121A068C903884202D0491167
:10BAE000884204D12068016840229143016001200E
:10BAF000A16A4003814207D121680A6882430A6033
:10BB000021680A6802430A600120403460770020FF
:10BB100020770320F8BD206881683046884304D030
:10BB20000020B842C3D10020F8BD0120F9E77047DA
:10BB3000704700001248016801221143016041680A
:10BB4000104A1140416001680F4A114001600168CC
:10BB5000012292049143016041683F221204914303
:10BB60004160C16A09090901C162016B074A1140BC
:10BB70000163416B490849004163002181607047BE
:10BB8000001002400CB8FF08FFFFF6FE2CFEFCFF81
:10BB900010B505F0D5FB034908700348FFF7DBF843
:10BBA00010BD0000DC000020B411002010B50248D8
:10BBB000FFF7D1F810BD0000D4120020F0B50268E4
:10BBC0001D4B0124A4071D4D984203D0A04201D073
:10BBD000A84203D17026B2434E683243184E194F23
:10BBE00098420DD0A0420BD0A84209D0164CA042DA
:10BBF00006D0B04204D0B84202D0144CA04204D1C6
:10BC000003242402A243CC6822438024A2434C692B
:10BC1000224302608A68C2620A688262984206D041
:10BC2000B04204D0B84202D0084A904201D109691A
:10BC3000016301214161F0BD002C0140000400407E
:10BC40000040014000440140002000400048014005
:10BC500030B58468FF252D021B021343AC430B4310
:10BC60002343836030BD826870239A430A430721CF
:10BC70000A43826070470000F0B5026A5208520021
:10BC80000262056A436882697024A24392080C68C4
:10BC900092001443022295438A68164E2A43144D9B
:10BCA000A84207D0B04205D0134FB84202D0134F7C
:10BCB000B84206D10827BA43CF68174304229743F6
:10BCC0003A46A84207D0B04205D00B4DA84202D058
:10BCD0000A4DA84206D103252D02AB434D691D43F1
:10BCE0008B692B4343608461496841630262F0BD04
:10BCF000002C014000400140004401400048014048
:10BD000070B5026A10239A430262056A4268836929
:10BD100073242402A3430C6824021C4320239D4364
:10BD20008B681B012B43124DA84208D11D46CB68DE
:10BD30008026B5431B012B434025AB4308E00D4D46
:10BD4000A84205D00C4DA84202D00C4DA84208D103
:10BD50000325AD02AA434D69AD0015438A699200DF
:10BD60002A434260846149688163036270BD0000B8
:10BD7000002C0140004001400044014000480140C7
:10BD800070B5026AFF2301339A430262056A436871
:10BD9000C2697024A24392080C68920014430122E5
:10BDA000520295438A6812022A43124DA84208D1D2
:10BDB0001546CA68C614B54312022A430515AA439C
:10BDC00008E00D4DA84205D00C4DA84202D00C4D04
:10BDD000A84208D103252D03AB434D692D011D4316
:10BDE0008B691B012B434360C4614968C1630262D4
:10BDF00070BD0000002C01400040014000440140A3
:10BE00000048014030B5026A01231B039A430262D5
:10BE1000046A4268C36973252D02AB430D682D0285
:10BE20001D4301235B039C438B681B0323430C4C82
:10BE3000A04208D00B4CA04205D00B4CA04202D02F
:10BE40000A4CA04205D10124A403A2434C69A401D9
:10BE500022434260C56149680164036230BD00004D
:10BE6000002C0140004001400044014000480140D6
:10BE700030B5036A046A6408640004628469F025CA
:10BE8000AC43120122430A24A3430B4382610362A1
:10BE900030BD30B5036A1024A34303628469036A8A
:10BEA0000F252D031203AC432243A024A343090111
:10BEB00019438261016230BD10B5818CC90707D07A
:10BEC00001684A6801235B049A43836A1A434A6003
:10BED000818C890707D501684A6801231B049A43AE
:10BEE000C36A1A434A60818C490707D501684A68CA
:10BEF00001239B049A43036B1A434A60818C090710
:10BF000007D501684A680123DB039A43436B1A4350
:10BF10004A60818CC90607D50268916801231B031A
:10BF20009943836B19439160818C890607D5016819
:10BF30008A6801235B039A43C36B1A438A60818C2E
:10BF4000490612D503685A6801210905046C8A4321
:10BF500022435A60026C8A4207D102685168032367
:10BF60005B059943436C19435160818C090607D5E1
:10BF700001684A680123DB04806C9A4302434A60EB
:10BF800010BD0000F8B500260446C666FDF7C2FCE9
:10BF9000054616492068884202D0154988421DD1BD
:10BFA0000068144F000709D501212B4600224905DE
:10BFB0002046009700F065F900280DD12068006840
:10BFC00040070BD501212B4600228905204600970A
:10BFD00000F057F9002801D00320F8BD202060347C
:10BFE0006072A07226720020F8BD00000038014087
:10BFF00000440040FFFFFF0110B5406A00220146E7
:10C0000040314A834A82FEF7A9FF10BD01680A68E1
:10C01000FF2321339A430A6001688A68520852005C
:10C020008A60202160308172704710B501680A680B
:10C0300040239A430A60202269210A54FFF799F9A4
:10C04000002010BD70B50246403203466033948B29
:10C050009D7A0168222D05D08869082210438861E5
:10C06000022070BD898C012685683603B54202D155
:10C070000569002D0BD02140446D651C456521707C
:10C08000518B491E0904090C518307D015E0456DF9
:10C0900021402980416D891C4165F1E701680A68EA
:10C0A000FF242134A2430A6001688A6852085200C2
:10C0B0008A6020219972FFF7F7F8002070BD000018
:10C0C000F8B504462369A268E5691A43636910203C
:10C0D0002B43002125681A432B680E46474F3B40EF
:10C0E00013432B6023685A6803252D03AA43E56890
:10C0F0002A435A60236AA26925681A43AB680B2752
:10C100003F02BB431343AB603D4F25683D4B0203E9
:10C11000BD420AD11B6B9B079B0F20D0012B14D073
:10C12000022B14D0032B1BD10DE0374FBD4210D191
:10C130001B6B03273F043B4011D09B1A05D09B1A71
:10C1400005D093420CD102200AE0042008E0082028
:10C1500006E02E4B9D4202D02D4B9D4200D1002087
:10C160000123E769DB039F4222D100280CD002287B
:10C170000DD0042813D0082817D001260A0912016F
:10C180000807400F10432EE0FDF7ACFD09E06168A1
:10C19000204A48088018FCF796FA81B2EEE7FDF7CE
:10C1A000B1FD616840004A08F4E761684808F1E7BA
:10C1B000002808D0022809D004280CD0082815D05F
:10C1C00001263046F8BDFDF78DFD06E06168124A94
:10C1D000480880180DE0FDF795FD61684A08801851
:10C1E000FCF771FA80B22168C860EAE76168480824
:10C1F000C018FCF768FA80B2E860E2E7F369FFEF85
:10C200000038014000100240004400400048004057
:10C21000004C00400024F40000127A006921095CFF
:10C22000212901D00220704702464032518A00295C
:10C2300012D0012381681B03994202D101690029B0
:10C2400015D0C16C4B1CC364006809780185508A05
:10C25000401E50820020704701680A6880239A437C
:10C260000A6000680168402211430160F2E7C16C76
:10C2700003680988C905C90D1985C16C891CC16489
:10C28000E5E7FFB581B017460E4604460A9D1DE05E
:10C29000681C1BD0002D05D0FDF73CFB0499401A0B
:10C2A000A84213D920680168FF22A132914301609E
:10C2B00020688168490849008160202060346072EC
:10C2C000A07200202072032005B0F0BD2068C16973
:10C2D0003046884304D00020B842D9D00020F3E78C
:10C2E0000120F9E710B50248FEF73AFE10BD000044
:10C2F000F4110020F8B5FF24FF25F534B9352146A7
:10C30000284600F005FB2146284600F001FB2146A7
:10C31000284600F0FDFAFF265F36771E3146384684
:10C3200000F0F6FA9621224800F0F2FA214628465B
:10C3300000F0EEFA3146384600F0EAFA96211C4841
:10C3400000F0E6FA1A4928467F3100F0E1FA20466B
:10C35000FDF709FA16482146883000F0D9FA14484A
:10C360002146883000F0D4FA11482146883000F088
:10C37000CFFA3146780000F0CBFA96210C4800F055
:10C38000C7FAFF202146A03000F0C2FA31463846F5
:10C3900000F0BEFA9621064800F0BAFA0449284691
:10C3A0007F3100F0B5FA2046FDF7DDF9F8BD000059
:10C3B0000B02000070B5FF253724F535240129460E
:10C3C000204600F0A5FAFF2166102D31304600F01E
:10C3D0009FFA9621304600F09BFA2946204600F04D
:10C3E00097FAFF2446342146204800F091FA312084
:10C3F000AF21000100F08CFAB926B6007D2130464D
:10C4000000F086FA19487D21843800F081FAFA217B
:10C41000304600F07DFA2046FDF7A5F9FF20FA210D
:10C42000C83000F075FA11482946D03800F070FA8B
:10C430000E482146F33800F06BFAAF210C4800F0AB
:10C4400067FA0B4C7D211F3C204600F061FAFF206B
:10C450007D21D33000F05CFAFA21204600F058FA32
:10C46000FF205F30FDF77FF970BD00003E03000044
:10C470002A020000F7B51746002412E00198A60032
:10C4800035182846FCF70EF900BA030AE8781B02B3
:10C4900003430098012132180548006804F036FC77
:10C4A000641CBC42EAD31E20FDF75DF90020FEBDEE
:10C4B000D800002001B56423012269460148FEF737
:10C4C000F4FE08BDF411002070B50A4601460024B0
:10C4D00000E0641C085D0028FBD10120107054703E
:10C4E000002004E015180B78401CAB70491CA042DA
:10C4F000F8D300261519AE702146901C00F046FABC
:10C50000010AA970E8702E71204670BD30B5002078
:10C51000EFF3108172B60B4B0B4C8200D5182D68CF
:10C52000A550401C3028F8D30848026892089200B1
:10C530000260026803231A430260002900D162B638
:10C5400030BD000000800008000000200000014015
:10C55000FEB50025684605700571494C01206570DF
:10C5600020700327656035E0684605726423012268
:10C5700002A94448FEF718FE06000FD06078002894
:10C5800002D0012804D009E04320FFF793FF05E023
:10C59000032101A800F046F9694608706946087A47
:10C5A00000F056F96946097A012908D0022906D017
:10C5B00004291BD0182961D0002E0BD111E00028CE
:10C5C00002D006280BD00CE00620FFF773FF01E035
:10C5D00069460870684600780028C5D0FEBD6946E7
:10C5E0000F71032101A800F01DF9F1E70620FFF704
:10C5F00061FF25A000F0AAF82A4D294A01216368AD
:10C60000286804F083FB28A12C486268FBF7FCFD36
:10C610002A4800F09BF82AA22EA12848FBF7F4FD37
:10C62000264800F093F81E4A0823121D01212868AD
:10C6300004F06CFB1A4A022308320121286804F036
:10C6400065FB174A00230C320121286804F05EFBC9
:10C65000134A012310321946286804F057FB21A021
:10C6600000F074F82848FDF77EF8BFF34F8F284993
:10C670002648C860BFF34F8F00BFFDE7FF20A7E744
:10C6800060020020F41100200A0D4669726D776186
:10C6900072652075706461746564210A0D00000084
:10C6A00004FF0F00D80000205772697465204F7591
:10C6B000743A20256C640D0A00000000EC04002090
:10C6C00049544C205341464554592030332E30387C
:10C6D0002E32300056455253494F4E3A2025730DA5
:10C6E0000A0000004A756D70696E6720746F2075CE
:10C6F000736572206170706C69636174696F6E2E0E
:10C700002E2E0A0D00000000C40900000400FA05E6
:10C7100000ED00E030B5024600200B4C11E013782C
:10C72000491E1B025840002389B2521C050402D541
:10C730004000604000E040005B1CDBB280B2082B90
:10C74000F4D30029EBD130BD2110000010B5002238
:10C7500001E0521C92B2815C0029FAD101466423A7
:10C760000148FEF7A2FD10BDF411002010B50549E7
:10C77000FFF7AAFE001D82B2642302490248FEF7B9
:10C7800094FD10BDF10A00206412002030B599B06C
:10C7900034216846FBF784FF0025149515951695FE
:10C7A0001C210DA81795FBF77BFFFDF73DF91B48F2
:10C7B000016A18221143016201243420059400907B
:10C7C000102006900294089409956846FDF706FB30
:10C7D000002801D0FCF76EFC072014900320159070
:10C7E00016950121179514A8FDF7B6F9002801D078
:10C7F000FCF760FC0A480D9000120EA931C10DA88B
:10C80000FDF71AF9002801D0FCF754FC00220121A1
:10C8100089061046FDF7BAFA19B030BD0010024083
:10C820000300010010B502780024521CD2B202703D
:10C830008A4207D31820FFF73DFE1820FFF73AFE83
:10C84000FF2402E01520FFF735FE204610BD000052
:10C85000F8B500252C4601280BD002280BD0002863
:10C860000CD0FF280AD0FF25271D00200646009087
:10C8700010E08024F8E70124A402F5E70020F8BDC9
:10C8800020487D238119DB0001221F48FEF78CFC24
:10C89000761C0090BE42F3D31A4E3119C8788978BD
:10C8A0000002084347BA2146B01CFFF733FF024697
:10C8B000002D24D10098002800D0042513483146CB
:10C8C00033780678B34200D002254E789B19FF2BAF
:10C8D00000D00225BA4200D001250646A2084068D1
:10C8E000891CFFF7C7FD002801D0062507E0002DB1
:10C8F00005D13078401C307070680019706028468F
:10C90000F8BD0000EC040020F411002060020020BB
:10C9100010B500F007F800F02FF8322004F0A8FB63
:10C9200010BD0000F8B50E4601461048FBF7D5FED5
:10C930000F4D441C2968002048620E4F10E0012270
:10C94000D1023846FCF7DFFFA0B204F091FB0121D1
:10C950000022C9023846FCF7D6FFA0B204F088FBDB
:10C960002868406AB042EAD3F8BD000020A1070061
:10C97000741100200004004810B501210022C902F2
:10C980000148FCF7C0FF10BD0004004830B5034665
:10C9900000200B4C10E01A78491E12025040002271
:10C9A0005B1C050402D54000604000E04000521CC2
:10C9B000D2B280B2082AF4D30029ECD130BD0000F5
:10C9C0002110000070B500240B4D0326F60320074C
:10C9D00005D1002C03DD6019027808A102E060197E
:10C9E000027809A10A48FBF70FFC0948FFF7AEFEE1
:10C9F000641CB442EBD370BD008000082030782561
:10CA0000303278200D0A000020307825303278004E
:10CA10001E0F002008B50020694608702448FFF763
:10CA200095FE2448FFF792FE2348FFF78FFE234828
:10CA3000FFF78CFE2048FFF789FE1D48FFF786FEB2
:10CA40001FA0FFF783FE0024E4431FA0FFF77EFE34
:10CA50002DA0FFF77BFE3CA0FFF778FE4AA0FFF772
:10CA600075FE59A0FFF772FE23460122694666480B
:10CA7000FEF79AFB68460078312807D0322808D0A4
:10CA8000332809D061A0FFF761FEDEE7FFF760FD04
:10CA9000DBE7FFF797FFD8E76BA0FFF757FEBFF381
:10CAA0004F8F73497148C860BFF34F8F00BFFDE7D8
:10CAB000381F0108A01E0108541E0108EC1E0108C1
:10CAC0000D0A0D0A000000000D0A3D3D3D3D3D3DB3
:10CAD0003D3D3D3D3D3D3D3D3D3D3D3D3D204D616F
:10CAE000696E204D656E75203D3D3D3D3D3D3D3DB2
:10CAF0003D3D3D3D3D3D3D3D3D3D3D3D3D3D3D3D66
:10CB00003D3D3D3D0D0A0A002020446F776E6C6F5D
:10CB1000616420696D61676520746F2074686520A9
:10CB2000696E7465726E616C20466C617368202D4D
:10CB30002D2D2D2D2D2D2D2D2D2D2D2D2D2D2D2D25
:10CB400020310D0A0A0000002020446F776E6C6FC0
:10CB500061642074686520696D616765206F662077
:10CB600074686520696E7465726E616C20466C61D4
:10CB70007368202D2D2D2D2D2D2D2D2D2D2D2D2D71
:10CB800020320D0A0A000000202045786563757484
:10CB90006520746865206C6F6164656420617070E5
:10CBA0006C69636174696F6E202D2D2D2D2D2D2DD7
:10CBB0002D2D2D2D2D2D2D2D2D2D2D2D2D2D2D2DA5
:10CBC00020330D0A0A0000003D3D3D3D3D3D3D3D09
:10CBD0003D3D3D3D3D3D3D3D3D3D3D3D3D3D3D3D85
:10CBE0003D3D3D3D3D3D3D3D3D3D3D3D3D3D3D3D75
:10CBF0003D3D3D3D3D3D3D3D3D3D3D3D3D3D3D3D65
:10CC00003D3D0D0A0A000000F4110020496E7661D6
:10CC10006C6964204E756D6265722021203D3D3E39
:10CC200020546865206E756D6265722073686F753B
:10CC30006C64206265206569746865722031206FBC
:10CC40007220320D0A0000005374617274207072F9
:10CC50006F6772616D20657865637574696F6E2E9C
:10CC60002E2E2E2E2E0D0A0A000000000400FA05BA
:10CC700000ED00E00EB5007802904106C90F820673
:10CC8000D20F01910092C1060207CB0F120F044987
:10CC90000448FBF7B9FA0348FFF758FD0EBD000042
:10CCA000C81F0108320F002038B504460A230122AC
:10CCB00069460348FDF794FC68460078207038BD4B
:10CCC000D01000207047704770B50122204DD4026B
:10CCD00021462846FCF717FE1920FCF744FD0022E8
:10CCE00021462846FCF70FFE1920FCF73CFD0122E7
:10CCF00021462846FCF707FE1920FCF734FD0022E8
:10CD000021462846FCF7FFFD1920FCF72CFD0122E7
:10CD100021462846FCF7F7FD1920FCF724FD0022E8
:10CD200021462846FCF7EFFD1920FCF71CFD0122E7
:10CD300021462846FCF7E7FD1920FCF714FD0022E8
:10CD400021462846FCF7DFFD1920FCF70CFD70BDDD
:10CD50000004004870B50122204DD4022146284627
:10CD6000FCF7D1FD7D20FCF7FEFC00222146284681
:10CD7000FCF7C9FD1920FCF7F6FC012221462846E4
:10CD8000FCF7C1FD7D20FCF7EEFC00222146284681
:10CD9000FCF7B9FD1920FCF7E6FC012221462846E4
:10CDA000FCF7B1FD7D20FCF7DEFC00222146284681
:10CDB000FCF7A9FD1920FCF7D6FC012221462846E4
:10CDC000FCF7A1FD7D20FCF7CEFC00222146284681
:10CDD000FCF799FD1920FCF7C6FC70BD0004004863
:10CDE00070B50122204DD40221462846FCF78BFD68
:10CDF0001920FCF7B8FC002221462846FCF783FDE9
:10CE00007D20FCF7B0FC012221462846FCF77BFD83
:10CE10001920FCF7A8FC002221462846FCF773FDE8
:10CE20007D20FCF7A0FC012221462846FCF76BFD83
:10CE30001920FCF798FC002221462846FCF763FDE8
:10CE40007D20FCF790FC012221462846FCF75BFD83
:10CE50001920FCF788FC002221462846FCF753FDE8
:10CE60007D20FCF780FC70BD0004004870B50C46C6
:10CE7000094D0122A24380212846FCF744FD0222ED
:10CE8000A24340212846FCF73EFD0422A243202174
:10CE90002846FCF738FD70BD0004004870B5CC434F
:10CEA0001D4DE2070121D20F49032846FCF72BFD57
:10CEB00002202246024041032846FCF724FD0420BC
:10CEC0002246024041032846FCF71DFD0820224669
:10CED000124E024081013046FCF715FD102022461B
:10CEE000024001013046FCF70EFD224620200240A0
:10CEF00080212846FCF707FD4020224602400146DB
:10CF00002846FCF700FD22468020024020212846CA
:10CF1000FCF7F9FC70BD0000000400480008004860
:10CF200070B50C464179059E490849003143049D7E
:10CF3000FD2631406D002943FB2529409B00194304
:10CF4000F7231940D2001143EF221140220111436F
:10CF50004171FFF7A3FF70BD10B54171FFF79EFF50
:10CF600010BD000070B50122084DD40221462846AC
:10CF7000FCF7C9FCFA20FCF7F6FB00222146284604
:10CF8000FCF7C1FC1920FCF7EEFB70BD0004004863
:10CF90000021C1708170417001700171704770474C
:10CFA00010B50446006805A209A1FBF72DF90E484B
:10CFB000FFF7CCFB2068FFF7C9FB10BD49544C209C
:10CFC0005341464554592030332E30382E323000EC
:10CFD00041524D656E74612076657273696F6E3A69
:10CFE0002025730D0A000000A119010810B50446A0
:10CFF0000A46006804A1FBF707F92068FFF7A6FBC3
:10D000002068FFF7B3FB10BD2573230010B504465D
:10D01000006803A1FBF7F8F82068FFF7A7FB10BD35
:10D020002452230010B504460A46006803A1FBF70A
:10D03000EBF82068FFF79AFB10BD00002451256C27
:10D040007523000070B5154D0446A88C0E46C00728
:10D050000CD12846243003F038FF002806D0FCF716
:10D0600059FCA86228462430C046C046FCF752FC52
:10D07000A96A401AFF21F53188420DD92068002E97
:10D0800001D007A100E008A1FBF7BEF82068FFF778
:10D090006DFBFCF73FFCA86270BD0000340200206D
:10D0A000246159230000000024614E230000000089
:10D0B00070B50E460446154600680FA1FBF7A4F8AC
:10D0C0002068FFF753FB0A2D14D20D4D64216868C8
:10D0D000FBF703FB00290AD10AA0FFF737FB324612
:10D0E0000CA12068FBF790F82068FFF72FFB686819
:10D0F000401C686070BD00002462256C7523000030
:10D10000340200204C6F7720426174746572790D8F
:10D110000A000000566F6C746167652025640D0A73
:10D120000000000010B586B00446142206A168462F
:10D13000FBF732F86A4609A12068FBF765F820681A
:10D14000FFF714FB06B010BD49544C20534146452F
:10D1500054592030332E30382E3230002476257347
:10D160002300000010B504460068FA2901D304A189
:10D1700000E005A1FBF748F82068FFF7F7FA10BDBB
:10D1800024704F2E4B23000024704C4F5723000077
:10D1900070B50446FCF7BEFBE168174D401A15490F
:10D1A00088421FD24910884203D214A0FFF7CEFA5A
:10D1B00016E0287800280BD10120287014A12068DF
:10D1C000FBF722F82068FFF7D1FA642003F050FF44
:10D1D00010A122692068FBF717F82068FFF7C6FA4C
:10D1E000002070BDFCF796FBE06000202870012055
:10D1F00070BD0000881300003402002054494D45E2
:10D200005220495320424C4F434B494E470D0A0090
:10D21000245223002464256C7523000070B5044655
:10D220000D460A46006804A1FAF7EEFF2561206862
:10D23000FFF79CFA70BD00002463256C7523000085
:10D2400030B591B00D460446FFF7A2FF002812D07A
:10D250002846FF38F83810D02846FF38F93817D05C
:10D260002A4612A12068FAF7CFFF2068FFF76EFA6E
:10D270002068FFF77BFA11B030BD44220D496846A3
:10D28000FAF78AFF6846FFF761FA0BA1206809E008
:10D2900030220BA16846FAF77FFF6846FFF756FA7F
:10D2A00013A12068FAF7B0FFE2E70000247A4525D1
:10D2B00064230000841F0108244535303323000017
:10D2C000446576696365206E65617220656E6420D1
:10D2D0006F66206C69666574696D6520666F722083
:10D2E0004D61696E74656E616E63650D0A000000C4
:10D2F0002445353034230000F0B58FB017460D4675
:10D300000446FFF745FF00282AD07D2040013E1843
:10D31000FF21FF209531F7308D4202D130221EA12E
:10D3200025E02946FF3996391CD02946FF3997391F
:10D330001BD02946FF39F63922D0854210D1202250
:10D3400021A16846FAF728FF6846FFF7FFF926494A
:10D3500020687A1825A1FAF757FF2068FFF706FA28
:10D360000FB0F0BD302223A101E030222DA168468C
:10D37000FAF712FF6846FFF7E9F932462068E9E755
:10D38000382234A16846FAF707FF6846FFF7DEF94E
:10D390003E492068DDE70000546865204D63752034
:10D3A000697320556E617661696C61626C652C20D1
:10D3B000737069206D656D207265616420666169B6
:10D3C0006C65640D0A00000054686520414D2063BF
:10D3D000616E6E6F74206265207772697474656E19
:10D3E00020746F0D0A0000007017000024452564AA
:10D3F0002300000054686520415054782069732050
:10D40000556E617661696C61626C652C2073706920
:10D41000206D656D2072656164206661696C65646C
:10D420000D0A000054686520414D20697320556E37
:10D43000617661696C61626C652C20737069206D26
:10D44000656D2072656164206661696C65640D0AB2
:10D4500000000000546865204150206973206E6F01
:10D460007420696E697469616C697A65642C2070D6
:10D470006C6561736520737570706C7920612076BE
:10D48000616C696420732F6E0D0A00008813000020
:10D4900070B5044640680D46A84202D000202072B4
:10D4A00065602046FFF774FE00281BD0002D11D0C8
:10D4B0006068A84215D1207A032812D22A460AA110
:10D4C0002068FAF7A1FE2068FFF750F9207A401C87
:10D4D000207206E006A12068FAF796FE2068FFF7A2
:10D4E00045F9656070BD00002466256C7523000059
:10D4F0002466302300000000F8B52F4C0646207C3F
:10D5000017460D46C0070AD12046103003F0DDFC57
:10D51000002804D0204610306561C046C0466169CD
:10D520006422C81B5043FBF7CEF8A061207BC007E4
:10D5300010D121480C3003F0C8FC00280AD0A069A3
:10D540000B2148430A21FBF7BEF8E0611A480C3072
:10D55000C046C046A0690B2148430A21FBF7B3F837
:10D56000E061207AC0070CD11348083003F0ADFC0D
:10D57000002806D0FCF7CEF920620F480830C046DC
:10D58000C046E069642801D96420E061002D12D012
:10D59000FCF7C0F9216A401AFF21F53188420AD907
:10D5A000306806A1E269FAF72FFE3068FFF7DEF86F
:10D5B000FCF7B0F92062F8BD340200202474256C19
:10D5C0007523000070B50D460446006807A1FAF700
:10D5D0001BFE2068FFF7CAF82A4606A12068FAF762
:10D5E00013FE2068FFF7C2F870BD00002468256CA8
:10D5F000752300002469256C75230000F8B51D46CD
:10D6000016460F460446FFF7C3FD002816D0002D2E
:10D6100001D00BA000E00CA00090002E01D008A3C8
:10D6200000E009A3002F01D005A200E006A208A196
:10D630002068FAF7E9FD2068FFF798F8F8BD0000C8
:10D64000747275650000000066616C73650000000F
:10D650002447637331202573200D0A63733220251C
:10D66000730D0A6373332025730D0A0010B5044649
:10D6700000206060E06020720348FF2101312060DB
:10D68000FBF70CF8204610BDF10900207047162367
:10D69000C35E012200212030FA2B02DD42770177A0
:10D6A0007047C82B4177FADA0277704770B51025BA
:10D6B0000446455F14204543643D0A481E2128184E
:10D6C0006563FBF700F8A06306484042854201D23B
:10D6D000002005E00448854201D8A06B70BD64209D
:10D6E000A06370BDD8DCFFFFE02E00001A21415E70
:10D6F0000D2251437D22D200891A016508467047E8
:10D700000EB501236A4613710901802211436A464E
:10D710005171006B0323007890710A20009002AAD7
:10D7200001A90548FDF7C0F86A46507A917A40078A
:10D73000400D40180EBD0000D0100020F8B50025A7
:10D740000F4606462C460021306B01F047FC0A20AC
:10D7500003F08EFC39463046FFF7D2FF401985B200
:10D760000121306B01F03AFC0A2003F081FC641CBB
:10D77000032CE8DB03212846FAF7A5FF7900891975
:10D780000882F8BD70B5124E0446002502213046CD
:10D79000FCF7B5F829462046FFF7D0FF0320FBF73A
:10D7A000E2FF6D1CEDB2082DF0D3208AE087204601
:10D7B000618A40300180A18A4180E18A8180218B89
:10D7C000C180618B0181A18B4181E18B818170BD21
:10D7D0000004004801630021016041608160C16074
:10D7E000016141618161C161016241628162C16225
:10D7F0004163024620328163117751777047704749
:10D80000F8B5054603F0B4FD354F38703878354922
:10D810002E4609782C46884340368034002813D0A1
:10D82000686FFFF751FA707B002804D00020FF21B9
:10D830007073913102E0012070730021E96060682B
:10D84000FFF7F0FB00203870A068FFF79BFFE86F40
:10D8500001F0FEF8284600F001FC00281DD0284603
:10D8600000F010FD002818D1FCF754F8A8601E48FD
:10D87000017801292FD00078284600F003FBE86FDB
:10D8800001F0BAF80121284600F0D6FC3179606831
:10D89000FFF7D8FB216805204870284600F096FF66
:10D8A000A068FFF703FFA0686A6B416B6068FFF731
:10D8B000FFFB3C21695E6068FFF754FC2269E16967
:10D8C0006068FFF719FE31796068FFF7BBFB2846F7
:10D8D00000F070FAF8BDE86F01F082F8CCE70000C4
:10D8E000DC000020DE000020DD000020F0B5044652
:10D8F0002546803529688BB0022048709A4E014633
:10D900003046FBF7FCFF1920FBF72DFF9748FEF789
:10D910001DFFE06F01F030F8A06F03F047F9A06F32
:10D9200081684A7A24210A554168497A217700683A
:10D930000221407A20753046FBF7E1FF1920FBF702
:10D9400012FF8A480D30FEF701FF204600F032FA40
:10D950002968887804284AD008284AD083482E307D
:10D96000FEF7F4FE204600F05AFB0127FF020028D4
:10D970007ED0204600F01CFB0028F9D0002239465A
:10D980003046FBF7C0FFA06F02F048FDA06F03F028
:10D99000E5F9A06F03F018FAA06F02F057FF2046D8
:10D9A00000F00EFBA16F88684069A06689688E69E7
:10D9B000EE61411C20D000281ED0701C1CD0002E0F
:10D9C0001AD0204600F090FBB0421ED300216868B8
:10D9D000FFF75EFDE8690090236F65A101A82A6941
:10D9E000FAF712FC01A8FEF7B1FE0BB0F0BD07205C
:10D9F00000E006204870F8E7204600F0D2FB6B6894
:10DA00000246FF21F63118469BE0204600F06CFBF1
:10DA10002060A06F5D4E8068C06820671AE02046D5
:10DA200000F05CFB001D2067A16F8968C86020467C
:10DA300000F054FBFF21090388420BD354A0FEF7EA
:10DA400085FE31466868FFF7FBFB00202067A16F69
:10DA50008968C860204600F041FBA36F024603219D
:10DA6000184603F00FF9401CD9D1A06F2B6900E0D4
:10DA700047E00321226F03F049F9002806D052A0A5
:10DA8000FEF764FE31466868FFF7DAFBA868FFF727
:10DA900079FEA868C08F002807D158A0FEF756FE6F
:10DAA0003A496868491CFFF7CBFB29680320487096
:10DAB0000321A06F02F086FE594A0321A06F02F0F5
:10DAC000A3FE0321A06F02F07DFE7D20000103F084
:10DAD000DBFAA06F02F0A2FC02462969E869411A4C
